{
  "address": "0x3462dd3c28F1548b1efe27EFc8DDB95326aB8e58",
  "abi": [
    {
      "inputs": [
        {
          "internalType": "contract IWETHGateway",
          "name": "_WETH_GATEWAY",
          "type": "address"
        },
        {
          "internalType": "contract IPool",
          "name": "_AAVE_POOL",
          "type": "address"
        },
        {
          "internalType": "address[]",
          "name": "_tokenAddresses",
          "type": "address[]"
        },
        {
          "internalType": "address[]",
          "name": "_priceFeeds",
          "type": "address[]"
        }
      ],
      "stateMutability": "nonpayable",
      "type": "constructor"
    },
    {
      "anonymous": false,
      "inputs": [
        {
          "indexed": false,
          "internalType": "address",
          "name": "_campaignAddress",
          "type": "address"
        },
        {
          "indexed": false,
          "internalType": "uint256",
          "name": "_campaignId",
          "type": "uint256"
        },
        {
          "indexed": false,
          "internalType": "uint256[]",
          "name": "_thresholds",
          "type": "uint256[]"
        }
      ],
      "name": "CampaignProposed",
      "type": "event"
    },
    {
      "anonymous": false,
      "inputs": [
        {
          "indexed": true,
          "internalType": "address",
          "name": "_user",
          "type": "address"
        },
        {
          "indexed": true,
          "internalType": "uint256",
          "name": "_id",
          "type": "uint256"
        },
        {
          "indexed": false,
          "internalType": "address",
          "name": "_address",
          "type": "address"
        }
      ],
      "name": "ClaimBadge",
      "type": "event"
    },
    {
      "anonymous": false,
      "inputs": [
        {
          "indexed": true,
          "internalType": "address",
          "name": "_user",
          "type": "address"
        },
        {
          "indexed": true,
          "internalType": "address",
          "name": "_tokenAddress",
          "type": "address"
        },
        {
          "indexed": true,
          "internalType": "uint256",
          "name": "_amount",
          "type": "uint256"
        }
      ],
      "name": "Deposited",
      "type": "event"
    },
    {
      "anonymous": false,
      "inputs": [
        {
          "indexed": true,
          "internalType": "address",
          "name": "_user",
          "type": "address"
        },
        {
          "indexed": true,
          "internalType": "uint256",
          "name": "_amount",
          "type": "uint256"
        }
      ],
      "name": "DepositedETH",
      "type": "event"
    },
    {
      "anonymous": false,
      "inputs": [
        {
          "indexed": true,
          "internalType": "address",
          "name": "_user",
          "type": "address"
        },
        {
          "indexed": true,
          "internalType": "address",
          "name": "_tokenAddress",
          "type": "address"
        },
        {
          "indexed": true,
          "internalType": "uint256",
          "name": "_amount",
          "type": "uint256"
        }
      ],
      "name": "Withdrawn",
      "type": "event"
    },
    {
      "anonymous": false,
      "inputs": [
        {
          "indexed": true,
          "internalType": "address",
          "name": "_user",
          "type": "address"
        },
        {
          "indexed": true,
          "internalType": "uint256",
          "name": "_amount",
          "type": "uint256"
        }
      ],
      "name": "WithdrawnETH",
      "type": "event"
    },
    {
      "inputs": [],
      "name": "AAVE_POOL",
      "outputs": [
        {
          "internalType": "contract IPool",
          "name": "",
          "type": "address"
        }
      ],
      "stateMutability": "view",
      "type": "function"
    },
    {
      "inputs": [],
      "name": "WETH_GATEWAY",
      "outputs": [
        {
          "internalType": "contract IWETHGateway",
          "name": "",
          "type": "address"
        }
      ],
      "stateMutability": "view",
      "type": "function"
    },
    {
      "inputs": [
        {
          "internalType": "uint256",
          "name": "_campaignId",
          "type": "uint256"
        },
        {
          "internalType": "uint256",
          "name": "_milestone",
          "type": "uint256"
        }
      ],
      "name": "claimBadge",
      "outputs": [],
      "stateMutability": "nonpayable",
      "type": "function"
    },
    {
      "inputs": [],
      "name": "claimBadge",
      "outputs": [
        {
          "internalType": "uint256",
          "name": "",
          "type": "uint256"
        }
      ],
      "stateMutability": "nonpayable",
      "type": "function"
    },
    {
      "inputs": [
        {
          "internalType": "address",
          "name": "_tokenAddress",
          "type": "address"
        },
        {
          "internalType": "uint256",
          "name": "_amount",
          "type": "uint256"
        }
      ],
      "name": "deposit",
      "outputs": [],
      "stateMutability": "nonpayable",
      "type": "function"
    },
    {
      "inputs": [
        {
          "internalType": "uint256",
          "name": "_campaignId",
          "type": "uint256"
        },
        {
          "internalType": "address",
          "name": "_tokenAddress",
          "type": "address"
        },
        {
          "internalType": "uint256",
          "name": "_amount",
          "type": "uint256"
        }
      ],
      "name": "deposit",
      "outputs": [],
      "stateMutability": "nonpayable",
      "type": "function"
    },
    {
      "inputs": [
        {
          "internalType": "uint256",
          "name": "_amount",
          "type": "uint256"
        }
      ],
      "name": "depositETH",
      "outputs": [],
      "stateMutability": "payable",
      "type": "function"
    },
    {
      "inputs": [],
      "name": "getCampaignCount",
      "outputs": [
        {
          "internalType": "uint256",
          "name": "",
          "type": "uint256"
        }
      ],
      "stateMutability": "view",
      "type": "function"
    },
    {
      "inputs": [
        {
          "internalType": "address",
          "name": "_priceFeed",
          "type": "address"
        }
      ],
      "name": "getLatestPrice",
      "outputs": [
        {
          "internalType": "uint256",
          "name": "",
          "type": "uint256"
        }
      ],
      "stateMutability": "view",
      "type": "function"
    },
    {
      "inputs": [
        {
          "internalType": "uint256[]",
          "name": "_thresholds",
          "type": "uint256[]"
        },
        {
          "internalType": "string[]",
          "name": "_cids",
          "type": "string[]"
        }
      ],
      "name": "proposeCampaign",
      "outputs": [],
      "stateMutability": "nonpayable",
      "type": "function"
    },
    {
      "inputs": [
        {
          "internalType": "address",
          "name": "",
          "type": "address"
        }
      ],
      "name": "tokenToPriceFeed",
      "outputs": [
        {
          "internalType": "address",
          "name": "",
          "type": "address"
        }
      ],
      "stateMutability": "view",
      "type": "function"
    },
    {
      "inputs": [
        {
          "internalType": "uint256",
          "name": "",
          "type": "uint256"
        },
        {
          "internalType": "address",
          "name": "",
          "type": "address"
        }
      ],
      "name": "userInfo",
      "outputs": [
        {
          "internalType": "uint256",
          "name": "ethAmount",
          "type": "uint256"
        },
        {
          "internalType": "uint256",
          "name": "timeEntered",
          "type": "uint256"
        },
        {
          "internalType": "uint256",
          "name": "powerAccumulated",
          "type": "uint256"
        }
      ],
      "stateMutability": "view",
      "type": "function"
    },
    {
      "inputs": [
        {
          "internalType": "uint256",
          "name": "_campaignId",
          "type": "uint256"
        },
        {
          "internalType": "address",
          "name": "_tokenAddress",
          "type": "address"
        },
        {
          "internalType": "uint256",
          "name": "_amount",
          "type": "uint256"
        }
      ],
      "name": "withdraw",
      "outputs": [],
      "stateMutability": "nonpayable",
      "type": "function"
    },
    {
      "inputs": [
        {
          "internalType": "address",
          "name": "_tokenAddress",
          "type": "address"
        },
        {
          "internalType": "uint256",
          "name": "_amount",
          "type": "uint256"
        }
      ],
      "name": "withdraw",
      "outputs": [],
      "stateMutability": "nonpayable",
      "type": "function"
    },
    {
      "inputs": [
        {
          "internalType": "uint256",
          "name": "_amount",
          "type": "uint256"
        }
      ],
      "name": "withdrawETH",
      "outputs": [],
      "stateMutability": "nonpayable",
      "type": "function"
    }
  ],
  "transactionHash": "0x6a746d38eec1007c0bf7d64e5a88084442de1fe2a289284d86b3ec5384ebaf80",
  "args": [
    "0x2a58E9bbb5434FdA7FF78051a4B82cb0EF669C17",
    "0x6C9fB0D5bD9429eb9Cd96B85B81d872281771E6B",
    [
      "0x9A753f0F7886C9fbF63cF59D0D4423C5eFaCE95B",
      "0xb685400156cF3CBE8725958DeAA61436727A30c3"
    ],
    [
      "0x0FCAa9c899EC5A91eBc3D5Dd869De833b06fB046",
      "0xd0D5e3DB44DE05E9F294BB0a3bEEaF030DE24Ada"
    ]
  ],
  "numDeployments": 1,
  "solcInputHash": "66d5551d12679a7c3afb789b9098e772",
  "bytecode": "0x60806040523480156200001157600080fd5b5060405162000f4238038062000f4283398101604081905262000034916200027e565b8051825114620000b05760405162461bcd60e51b815260206004820152603b60248201527f4741415645436f72653a206e756d626572206f6620746f6b656e20616464726560448201527f73736573206d757374206d617463682070726963652066656564730000000000606482015260840160405180910390fd5b600380546001600160a01b038087166001600160a01b031992831617909255600480549286169290911691909117905560005b8251811015620001855781818151811062000102576200010262000313565b60200260200101516002600085848151811062000123576200012362000313565b60200260200101516001600160a01b03166001600160a01b0316815260200190815260200160002060006101000a8154816001600160a01b0302191690836001600160a01b0316021790555080806200017c9062000329565b915050620000e3565b505050505062000353565b6001600160a01b0381168114620001a657600080fd5b50565b634e487b7160e01b600052604160045260246000fd5b8051620001cc8162000190565b919050565b600082601f830112620001e357600080fd5b815160206001600160401b0380831115620002025762000202620001a9565b8260051b604051601f19603f830116810181811084821117156200022a576200022a620001a9565b6040529384528581018301938381019250878511156200024957600080fd5b83870191505b8482101562000273576200026382620001bf565b835291830191908301906200024f565b979650505050505050565b600080600080608085870312156200029557600080fd5b8451620002a28162000190565b6020860151909450620002b58162000190565b60408601519093506001600160401b0380821115620002d357600080fd5b620002e188838901620001d1565b93506060870151915080821115620002f857600080fd5b506200030787828801620001d1565b91505092959194509250565b634e487b7160e01b600052603260045260246000fd5b60006000198214156200034c57634e487b7160e01b600052601160045260246000fd5b5060010190565b610bdf80620003636000396000f3fe6080604052600436106100e85760003560e01c80636caa92181161008a578063bc157ac111610059578063bc157ac11461028f578063e63697c8146102af578063f14210a6146102cf578063f3fef3a31461017957600080fd5b80636caa9218146101c05780638078f22c146101d457806393f1a40b1461020a578063ae5a98ba1461026f57600080fd5b806347e7ef24116100c657806347e7ef24146101795780635358fbda1461019457806354d1597c146101a557806356e56942146101c057600080fd5b806308a01675146100ed57806316345f181461012a57806326923d8014610158575b600080fd5b3480156100f957600080fd5b5060045461010d906001600160a01b031681565b6040516001600160a01b0390911681526020015b60405180910390f35b34801561013657600080fd5b5061014a6101453660046107ab565b6102ea565b604051908152602001610121565b34801561016457600080fd5b50610177610173366004610921565b5050565b005b34801561018557600080fd5b506101776101733660046109da565b6101776101a2366004610a04565b50565b3480156101b157600080fd5b50610177610173366004610a1d565b3480156101cc57600080fd5b50600061014a565b3480156101e057600080fd5b5061010d6101ef3660046107ab565b6002602052600090815260409020546001600160a01b031681565b34801561021657600080fd5b50610254610225366004610a3f565b600160209081526000928352604080842090915290825290206002810154600382015460049092015490919083565b60408051938452602084019290925290820152606001610121565b34801561027b57600080fd5b5060035461010d906001600160a01b031681565b34801561029b57600080fd5b506101776102aa366004610a6b565b610361565b3480156102bb57600080fd5b506101776102ca366004610a6b565b610587565b3480156102db57600080fd5b506101776101a2366004610a04565b6000808290506000816001600160a01b031663feaf968c6040518163ffffffff1660e01b815260040160a060405180830381865afa158015610330573d6000803e3d6000fd5b505050506040513d601f19601f820116820180604052508101906103549190610aba565b5091979650505050505050565b600083815260016020908152604080832033845282528083206001600160a01b0386811685526002909352908320549092429290916103a091166102ea565b6001600160a01b0386166000908152602085905260409020549091506103fa576000600484018190556001600160a01b038616815260208481526040808320879055600186019091529020819055600383018290556104d2565b60038301546104099083610b20565b6001600160a01b03861660009081526001850160205260409020546002906104319084610b37565b6001600160a01b0388166000908152602087905260409020546104549190610b4f565b61045e9190610b6e565b6104689190610b4f565b83600401600082825461047b9190610b37565b90915550506001600160a01b038516600090815260208490526040812080548692906104a8908490610b37565b9091555050600383018290556001600160a01b038516600090815260018401602052604090208190555b6004805460405163e8eda9df60e01b81526001600160a01b0388811693820193909352602481018790523060448201526000606482015291169063e8eda9df90608401600060405180830381600087803b15801561052f57600080fd5b505af1158015610543573d6000803e3d6000fd5b50506040518692506001600160a01b038816915033907f8752a472e571a816aea92eec8dae9baf628e840f4929fbcc2d155e6233ff68a790600090a4505050505050565b600083815260016020908152604080832033845282528083206001600160a01b0386168452918290529091205482106106235760405162461bcd60e51b815260206004820152603460248201527f4741415645436f72653a20576974686472617720616d6f756e74206d6f7265206044820152731d1a185b88195e1a5cdd1a5b99c8185b5bdd5b9d60621b606482015260840160405180910390fd5b6001600160a01b03808416600090815260026020526040812054909161064991166102ea565b60048054604051631a4ca37b60e21b81526001600160a01b03888116938201939093526024810187905233604482015292935016906369328dec906064016020604051808303816000875af11580156106a6573d6000803e3d6000fd5b505050506040513d601f19601f820116820180604052508101906106ca9190610b90565b50600382015442906106dc9082610b20565b6001600160a01b03861660009081526001850160205260409020546002906107049085610b37565b6001600160a01b0388166000908152602087905260409020546107279190610b4f565b6107319190610b6e565b61073b9190610b4f565b83600401600082825461074e9190610b37565b90915550506001600160a01b0385166000908152602084905260408120805486929061077b908490610b20565b909155505060039092019190915550505050565b80356001600160a01b03811681146107a657600080fd5b919050565b6000602082840312156107bd57600080fd5b6107c68261078f565b9392505050565b634e487b7160e01b600052604160045260246000fd5b604051601f8201601f1916810167ffffffffffffffff8111828210171561080c5761080c6107cd565b604052919050565b600067ffffffffffffffff82111561082e5761082e6107cd565b5060051b60200190565b6000601f838184011261084a57600080fd5b8235602061085f61085a83610814565b6107e3565b82815260059290921b8501810191818101908784111561087e57600080fd5b8287015b8481101561091557803567ffffffffffffffff808211156108a35760008081fd5b818a0191508a603f8301126108b85760008081fd5b858201356040828211156108ce576108ce6107cd565b6108df828b01601f191689016107e3565b92508183528c818386010111156108f65760008081fd5b8181850189850137506000908201870152845250918301918301610882565b50979650505050505050565b6000806040838503121561093457600080fd5b823567ffffffffffffffff8082111561094c57600080fd5b818501915085601f83011261096057600080fd5b8135602061097061085a83610814565b82815260059290921b8401810191818101908984111561098f57600080fd5b948201945b838610156109ad57853582529482019490820190610994565b965050860135925050808211156109c357600080fd5b506109d085828601610838565b9150509250929050565b600080604083850312156109ed57600080fd5b6109f68361078f565b946020939093013593505050565b600060208284031215610a1657600080fd5b5035919050565b60008060408385031215610a3057600080fd5b50508035926020909101359150565b60008060408385031215610a5257600080fd5b82359150610a626020840161078f565b90509250929050565b600080600060608486031215610a8057600080fd5b83359250610a906020850161078f565b9150604084013590509250925092565b805169ffffffffffffffffffff811681146107a657600080fd5b600080600080600060a08688031215610ad257600080fd5b610adb86610aa0565b9450602086015193506040860151925060608601519150610afe60808701610aa0565b90509295509295909350565b634e487b7160e01b600052601160045260246000fd5b600082821015610b3257610b32610b0a565b500390565b60008219821115610b4a57610b4a610b0a565b500190565b6000816000190483118215151615610b6957610b69610b0a565b500290565b600082610b8b57634e487b7160e01b600052601260045260246000fd5b500490565b600060208284031215610ba257600080fd5b505191905056fea2646970667358221220edb5114859b3d7d34c838c2359f8ecfbf345ace470de3f8578874c0ad7112ec764736f6c634300080a0033",
  "devdoc": {
    "kind": "dev",
    "methods": {
      "claimBadge()": {
        "returns": {
          "_0": "The address of the registered for the specified id"
        }
      },
      "claimBadge(uint256,uint256)": {
        "params": {
          "_campaignId": "The id of the campaign to claim from",
          "_milestone": "The milestone of the reward"
        }
      },
      "deposit(address,uint256)": {
        "params": {
          "_amount": "The amount of tokens to deposit",
          "_tokenAddress": "The address of the token to deposit"
        }
      },
      "deposit(uint256,address,uint256)": {
        "params": {
          "_amount": "The amount of tokens to deposit",
          "_tokenAddress": "The address of the token to deposit"
        }
      },
      "depositETH(uint256)": {
        "params": {
          "_amount": "The amount of tokens to deposit"
        }
      },
      "getLatestPrice(address)": {
        "returns": {
          "_0": "The value of the token in USD"
        }
      },
      "withdraw(address,uint256)": {
        "params": {
          "_amount": "The amount of tokens to withdraw",
          "_tokenAddress": "The address of the token to withdraw"
        }
      },
      "withdraw(uint256,address,uint256)": {
        "params": {
          "_amount": "The amount of tokens to withdraw",
          "_tokenAddress": "The address of the token to withdraw"
        }
      },
      "withdrawETH(uint256)": {
        "params": {
          "_amount": "The amount of tokens to withdraw"
        }
      }
    },
    "version": 1
  },
  "userdoc": {
    "kind": "user",
    "methods": {
      "claimBadge()": {
        "notice": "Claim badges from GAAVE"
      },
      "claimBadge(uint256,uint256)": {
        "notice": "Claim badges from GAAVE"
      },
      "deposit(address,uint256)": {
        "notice": "Deposit Crypto into GAAVE"
      },
      "deposit(uint256,address,uint256)": {
        "notice": "Deposit Crypto into GAAVE"
      },
      "depositETH(uint256)": {
        "notice": "Deposit ETH into GAAVE"
      },
      "getLatestPrice(address)": {
        "notice": "Calculate the value of deposit based on the token's address"
      },
      "withdraw(address,uint256)": {
        "notice": "Withdraw Crypto from GAAVE"
      },
      "withdraw(uint256,address,uint256)": {
        "notice": "Withdraw Crypto from GAAVE"
      },
      "withdrawETH(uint256)": {
        "notice": "Withdraw ETH from GAAVE"
      }
    },
    "version": 1
  },
  "storageLayout": {
    "storage": [
      {
        "astId": 137,
        "contract": "contracts/GAAVECore.sol:GAAVECore",
        "label": "campaigns",
        "offset": 0,
        "slot": "0",
        "type": "t_mapping(t_uint256,t_struct(Campaign)901_storage)"
      },
      {
        "astId": 144,
        "contract": "contracts/GAAVECore.sol:GAAVECore",
        "label": "userInfo",
        "offset": 0,
        "slot": "1",
        "type": "t_mapping(t_uint256,t_mapping(t_address,t_struct(User)916_storage))"
      },
      {
        "astId": 148,
        "contract": "contracts/GAAVECore.sol:GAAVECore",
        "label": "tokenToPriceFeed",
        "offset": 0,
        "slot": "2",
        "type": "t_mapping(t_address,t_address)"
      },
      {
        "astId": 151,
        "contract": "contracts/GAAVECore.sol:GAAVECore",
        "label": "WETH_GATEWAY",
        "offset": 0,
        "slot": "3",
        "type": "t_contract(IWETHGateway)1901"
      },
      {
        "astId": 154,
        "contract": "contracts/GAAVECore.sol:GAAVECore",
        "label": "AAVE_POOL",
        "offset": 0,
        "slot": "4",
        "type": "t_contract(IPool)1649"
      }
    ],
    "types": {
      "t_address": {
        "encoding": "inplace",
        "label": "address",
        "numberOfBytes": "20"
      },
      "t_array(t_uint256)dyn_storage": {
        "base": "t_uint256",
        "encoding": "dynamic_array",
        "label": "uint256[]",
        "numberOfBytes": "32"
      },
      "t_contract(IPool)1649": {
        "encoding": "inplace",
        "label": "contract IPool",
        "numberOfBytes": "20"
      },
      "t_contract(IWETHGateway)1901": {
        "encoding": "inplace",
        "label": "contract IWETHGateway",
        "numberOfBytes": "20"
      },
      "t_mapping(t_address,t_address)": {
        "encoding": "mapping",
        "key": "t_address",
        "label": "mapping(address => address)",
        "numberOfBytes": "32",
        "value": "t_address"
      },
      "t_mapping(t_address,t_struct(User)916_storage)": {
        "encoding": "mapping",
        "key": "t_address",
        "label": "mapping(address => struct IGAAVECore.User)",
        "numberOfBytes": "32",
        "value": "t_struct(User)916_storage"
      },
      "t_mapping(t_address,t_uint256)": {
        "encoding": "mapping",
        "key": "t_address",
        "label": "mapping(address => uint256)",
        "numberOfBytes": "32",
        "value": "t_uint256"
      },
      "t_mapping(t_uint256,t_mapping(t_address,t_struct(User)916_storage))": {
        "encoding": "mapping",
        "key": "t_uint256",
        "label": "mapping(uint256 => mapping(address => struct IGAAVECore.User))",
        "numberOfBytes": "32",
        "value": "t_mapping(t_address,t_struct(User)916_storage)"
      },
      "t_mapping(t_uint256,t_struct(Campaign)901_storage)": {
        "encoding": "mapping",
        "key": "t_uint256",
        "label": "mapping(uint256 => struct IGAAVECore.Campaign)",
        "numberOfBytes": "32",
        "value": "t_struct(Campaign)901_storage"
      },
      "t_struct(Campaign)901_storage": {
        "encoding": "inplace",
        "label": "struct IGAAVECore.Campaign",
        "members": [
          {
            "astId": 897,
            "contract": "contracts/GAAVECore.sol:GAAVECore",
            "label": "badgeIds",
            "offset": 0,
            "slot": "0",
            "type": "t_array(t_uint256)dyn_storage"
          },
          {
            "astId": 900,
            "contract": "contracts/GAAVECore.sol:GAAVECore",
            "label": "thresholds",
            "offset": 0,
            "slot": "1",
            "type": "t_array(t_uint256)dyn_storage"
          }
        ],
        "numberOfBytes": "64"
      },
      "t_struct(User)916_storage": {
        "encoding": "inplace",
        "label": "struct IGAAVECore.User",
        "members": [
          {
            "astId": 905,
            "contract": "contracts/GAAVECore.sol:GAAVECore",
            "label": "tokenAmount",
            "offset": 0,
            "slot": "0",
            "type": "t_mapping(t_address,t_uint256)"
          },
          {
            "astId": 909,
            "contract": "contracts/GAAVECore.sol:GAAVECore",
            "label": "lastPrice",
            "offset": 0,
            "slot": "1",
            "type": "t_mapping(t_address,t_uint256)"
          },
          {
            "astId": 911,
            "contract": "contracts/GAAVECore.sol:GAAVECore",
            "label": "ethAmount",
            "offset": 0,
            "slot": "2",
            "type": "t_uint256"
          },
          {
            "astId": 913,
            "contract": "contracts/GAAVECore.sol:GAAVECore",
            "label": "timeEntered",
            "offset": 0,
            "slot": "3",
            "type": "t_uint256"
          },
          {
            "astId": 915,
            "contract": "contracts/GAAVECore.sol:GAAVECore",
            "label": "powerAccumulated",
            "offset": 0,
            "slot": "4",
            "type": "t_uint256"
          }
        ],
        "numberOfBytes": "160"
      },
      "t_uint256": {
        "encoding": "inplace",
        "label": "uint256",
        "numberOfBytes": "32"
      }
    }
  }
}