{
  "address": "0x082AF6809906d2AE60A4fb22D3627158CEa035e7",
  "abi": [
    {
      "inputs": [
        {
          "internalType": "string",
          "name": "_name",
          "type": "string"
        },
        {
          "internalType": "string",
          "name": "_symbol",
          "type": "string"
        },
        {
          "internalType": "string",
          "name": "baseURI",
          "type": "string"
        }
      ],
      "stateMutability": "nonpayable",
      "type": "constructor"
    },
    {
      "anonymous": false,
      "inputs": [
        {
          "indexed": true,
          "internalType": "address",
          "name": "account",
          "type": "address"
        },
        {
          "indexed": true,
          "internalType": "address",
          "name": "operator",
          "type": "address"
        },
        {
          "indexed": false,
          "internalType": "bool",
          "name": "approved",
          "type": "bool"
        }
      ],
      "name": "ApprovalForAll",
      "type": "event"
    },
    {
      "anonymous": false,
      "inputs": [
        {
          "indexed": true,
          "internalType": "address",
          "name": "previousOwner",
          "type": "address"
        },
        {
          "indexed": true,
          "internalType": "address",
          "name": "newOwner",
          "type": "address"
        }
      ],
      "name": "OwnershipTransferred",
      "type": "event"
    },
    {
      "anonymous": false,
      "inputs": [
        {
          "indexed": false,
          "internalType": "address",
          "name": "account",
          "type": "address"
        }
      ],
      "name": "Paused",
      "type": "event"
    },
    {
      "anonymous": false,
      "inputs": [
        {
          "indexed": true,
          "internalType": "address",
          "name": "operator",
          "type": "address"
        },
        {
          "indexed": true,
          "internalType": "address",
          "name": "from",
          "type": "address"
        },
        {
          "indexed": true,
          "internalType": "address",
          "name": "to",
          "type": "address"
        },
        {
          "indexed": false,
          "internalType": "uint256[]",
          "name": "ids",
          "type": "uint256[]"
        },
        {
          "indexed": false,
          "internalType": "uint256[]",
          "name": "values",
          "type": "uint256[]"
        }
      ],
      "name": "TransferBatch",
      "type": "event"
    },
    {
      "anonymous": false,
      "inputs": [
        {
          "indexed": true,
          "internalType": "address",
          "name": "operator",
          "type": "address"
        },
        {
          "indexed": true,
          "internalType": "address",
          "name": "from",
          "type": "address"
        },
        {
          "indexed": true,
          "internalType": "address",
          "name": "to",
          "type": "address"
        },
        {
          "indexed": false,
          "internalType": "uint256",
          "name": "id",
          "type": "uint256"
        },
        {
          "indexed": false,
          "internalType": "uint256",
          "name": "value",
          "type": "uint256"
        }
      ],
      "name": "TransferSingle",
      "type": "event"
    },
    {
      "anonymous": false,
      "inputs": [
        {
          "indexed": false,
          "internalType": "string",
          "name": "value",
          "type": "string"
        },
        {
          "indexed": true,
          "internalType": "uint256",
          "name": "id",
          "type": "uint256"
        }
      ],
      "name": "URI",
      "type": "event"
    },
    {
      "anonymous": false,
      "inputs": [
        {
          "indexed": false,
          "internalType": "address",
          "name": "account",
          "type": "address"
        }
      ],
      "name": "Unpaused",
      "type": "event"
    },
    {
      "inputs": [
        {
          "internalType": "address[]",
          "name": "_addresses",
          "type": "address[]"
        },
        {
          "internalType": "uint256",
          "name": "_id",
          "type": "uint256"
        }
      ],
      "name": "airdrop",
      "outputs": [],
      "stateMutability": "nonpayable",
      "type": "function"
    },
    {
      "inputs": [
        {
          "internalType": "address",
          "name": "account",
          "type": "address"
        },
        {
          "internalType": "uint256",
          "name": "id",
          "type": "uint256"
        }
      ],
      "name": "balanceOf",
      "outputs": [
        {
          "internalType": "uint256",
          "name": "",
          "type": "uint256"
        }
      ],
      "stateMutability": "view",
      "type": "function"
    },
    {
      "inputs": [
        {
          "internalType": "address[]",
          "name": "accounts",
          "type": "address[]"
        },
        {
          "internalType": "uint256[]",
          "name": "ids",
          "type": "uint256[]"
        }
      ],
      "name": "balanceOfBatch",
      "outputs": [
        {
          "internalType": "uint256[]",
          "name": "",
          "type": "uint256[]"
        }
      ],
      "stateMutability": "view",
      "type": "function"
    },
    {
      "inputs": [
        {
          "internalType": "address",
          "name": "_to",
          "type": "address"
        },
        {
          "internalType": "uint256[]",
          "name": "_ids",
          "type": "uint256[]"
        },
        {
          "internalType": "uint256[]",
          "name": "_quantities",
          "type": "uint256[]"
        },
        {
          "internalType": "bytes",
          "name": "_data",
          "type": "bytes"
        }
      ],
      "name": "batchMint",
      "outputs": [],
      "stateMutability": "nonpayable",
      "type": "function"
    },
    {
      "inputs": [
        {
          "internalType": "address",
          "name": "_initialOwner",
          "type": "address"
        },
        {
          "internalType": "uint256",
          "name": "_initialSupply",
          "type": "uint256"
        },
        {
          "internalType": "string",
          "name": "_uri",
          "type": "string"
        },
        {
          "internalType": "bytes",
          "name": "_data",
          "type": "bytes"
        }
      ],
      "name": "create",
      "outputs": [
        {
          "internalType": "uint256",
          "name": "",
          "type": "uint256"
        }
      ],
      "stateMutability": "nonpayable",
      "type": "function"
    },
    {
      "inputs": [
        {
          "internalType": "uint256",
          "name": "",
          "type": "uint256"
        }
      ],
      "name": "creators",
      "outputs": [
        {
          "internalType": "address",
          "name": "",
          "type": "address"
        }
      ],
      "stateMutability": "view",
      "type": "function"
    },
    {
      "inputs": [
        {
          "internalType": "address",
          "name": "account",
          "type": "address"
        },
        {
          "internalType": "address",
          "name": "operator",
          "type": "address"
        }
      ],
      "name": "isApprovedForAll",
      "outputs": [
        {
          "internalType": "bool",
          "name": "",
          "type": "bool"
        }
      ],
      "stateMutability": "view",
      "type": "function"
    },
    {
      "inputs": [
        {
          "internalType": "address",
          "name": "_to",
          "type": "address"
        },
        {
          "internalType": "uint256",
          "name": "_id",
          "type": "uint256"
        },
        {
          "internalType": "uint256",
          "name": "_quantity",
          "type": "uint256"
        },
        {
          "internalType": "bytes",
          "name": "_data",
          "type": "bytes"
        }
      ],
      "name": "mint",
      "outputs": [],
      "stateMutability": "nonpayable",
      "type": "function"
    },
    {
      "inputs": [],
      "name": "name",
      "outputs": [
        {
          "internalType": "string",
          "name": "",
          "type": "string"
        }
      ],
      "stateMutability": "view",
      "type": "function"
    },
    {
      "inputs": [],
      "name": "owner",
      "outputs": [
        {
          "internalType": "address",
          "name": "",
          "type": "address"
        }
      ],
      "stateMutability": "view",
      "type": "function"
    },
    {
      "inputs": [],
      "name": "paused",
      "outputs": [
        {
          "internalType": "bool",
          "name": "",
          "type": "bool"
        }
      ],
      "stateMutability": "view",
      "type": "function"
    },
    {
      "inputs": [],
      "name": "renounceOwnership",
      "outputs": [],
      "stateMutability": "nonpayable",
      "type": "function"
    },
    {
      "inputs": [
        {
          "internalType": "address",
          "name": "from",
          "type": "address"
        },
        {
          "internalType": "address",
          "name": "to",
          "type": "address"
        },
        {
          "internalType": "uint256[]",
          "name": "ids",
          "type": "uint256[]"
        },
        {
          "internalType": "uint256[]",
          "name": "amounts",
          "type": "uint256[]"
        },
        {
          "internalType": "bytes",
          "name": "data",
          "type": "bytes"
        }
      ],
      "name": "safeBatchTransferFrom",
      "outputs": [],
      "stateMutability": "nonpayable",
      "type": "function"
    },
    {
      "inputs": [
        {
          "internalType": "address",
          "name": "from",
          "type": "address"
        },
        {
          "internalType": "address",
          "name": "to",
          "type": "address"
        },
        {
          "internalType": "uint256",
          "name": "id",
          "type": "uint256"
        },
        {
          "internalType": "uint256",
          "name": "amount",
          "type": "uint256"
        },
        {
          "internalType": "bytes",
          "name": "data",
          "type": "bytes"
        }
      ],
      "name": "safeTransferFrom",
      "outputs": [],
      "stateMutability": "nonpayable",
      "type": "function"
    },
    {
      "inputs": [
        {
          "internalType": "address",
          "name": "operator",
          "type": "address"
        },
        {
          "internalType": "bool",
          "name": "approved",
          "type": "bool"
        }
      ],
      "name": "setApprovalForAll",
      "outputs": [],
      "stateMutability": "nonpayable",
      "type": "function"
    },
    {
      "inputs": [
        {
          "internalType": "string",
          "name": "_newBaseMetadataURI",
          "type": "string"
        }
      ],
      "name": "setBaseMetadataURI",
      "outputs": [],
      "stateMutability": "nonpayable",
      "type": "function"
    },
    {
      "inputs": [
        {
          "internalType": "address",
          "name": "_to",
          "type": "address"
        },
        {
          "internalType": "uint256[]",
          "name": "_ids",
          "type": "uint256[]"
        }
      ],
      "name": "setCreator",
      "outputs": [],
      "stateMutability": "nonpayable",
      "type": "function"
    },
    {
      "inputs": [
        {
          "internalType": "uint256",
          "name": "tokenId",
          "type": "uint256"
        },
        {
          "internalType": "string",
          "name": "_newTokenURI",
          "type": "string"
        }
      ],
      "name": "setTokenURI",
      "outputs": [],
      "stateMutability": "nonpayable",
      "type": "function"
    },
    {
      "inputs": [
        {
          "internalType": "bytes4",
          "name": "interfaceId",
          "type": "bytes4"
        }
      ],
      "name": "supportsInterface",
      "outputs": [
        {
          "internalType": "bool",
          "name": "",
          "type": "bool"
        }
      ],
      "stateMutability": "view",
      "type": "function"
    },
    {
      "inputs": [],
      "name": "symbol",
      "outputs": [
        {
          "internalType": "string",
          "name": "",
          "type": "string"
        }
      ],
      "stateMutability": "view",
      "type": "function"
    },
    {
      "inputs": [
        {
          "internalType": "uint256",
          "name": "",
          "type": "uint256"
        }
      ],
      "name": "tokenSupply",
      "outputs": [
        {
          "internalType": "uint256",
          "name": "",
          "type": "uint256"
        }
      ],
      "stateMutability": "view",
      "type": "function"
    },
    {
      "inputs": [
        {
          "internalType": "uint256",
          "name": "id",
          "type": "uint256"
        }
      ],
      "name": "totalSupply",
      "outputs": [
        {
          "internalType": "uint256",
          "name": "",
          "type": "uint256"
        }
      ],
      "stateMutability": "view",
      "type": "function"
    },
    {
      "inputs": [
        {
          "internalType": "address",
          "name": "newOwner",
          "type": "address"
        }
      ],
      "name": "transferOwnership",
      "outputs": [],
      "stateMutability": "nonpayable",
      "type": "function"
    },
    {
      "inputs": [
        {
          "internalType": "uint256",
          "name": "tokenId",
          "type": "uint256"
        }
      ],
      "name": "uri",
      "outputs": [
        {
          "internalType": "string",
          "name": "",
          "type": "string"
        }
      ],
      "stateMutability": "view",
      "type": "function"
    }
  ],
  "transactionHash": "0xf351c19a7793521e5e51eefc7ba3e878458a27e0218be24c685342c0e7705606",
  "args": [
    "GAAVE Badges",
    "GAAVEB",
    ""
  ],
  "numDeployments": 1,
  "solcInputHash": "8aac20bfddc2e5cdb56dfe7f5ae699f7",
  "bytecode": "0x60806040526000600b553480156200001657600080fd5b50604051620027c6380380620027c6833981016040819052620000399162000276565b80620000458162000090565b506003805460ff191690556200005b33620000a9565b82516200007090600490602086019062000103565b5081516200008690600590602085019062000103565b5050505062000344565b8051620000a590600290602084019062000103565b5050565b600380546001600160a01b03838116610100818102610100600160a81b031985161790945560405193909204169182907f8be0079c531659141344cd1fd0a4f28419497f9722a3daafe3b4186f6b6457e090600090a35050565b828054620001119062000307565b90600052602060002090601f01602090048101928262000135576000855562000180565b82601f106200015057805160ff191683800117855562000180565b8280016001018555821562000180579182015b828111156200018057825182559160200191906001019062000163565b506200018e92915062000192565b5090565b5b808211156200018e576000815560010162000193565b634e487b7160e01b600052604160045260246000fd5b600082601f830112620001d157600080fd5b81516001600160401b0380821115620001ee57620001ee620001a9565b604051601f8301601f19908116603f01168101908282118183101715620002195762000219620001a9565b816040528381526020925086838588010111156200023657600080fd5b600091505b838210156200025a57858201830151818301840152908201906200023b565b838211156200026c5760008385830101525b9695505050505050565b6000806000606084860312156200028c57600080fd5b83516001600160401b0380821115620002a457600080fd5b620002b287838801620001bf565b94506020860151915080821115620002c957600080fd5b620002d787838801620001bf565b93506040860151915080821115620002ee57600080fd5b50620002fd86828701620001bf565b9150509250925092565b600181811c908216806200031c57607f821691505b602082108114156200033e57634e487b7160e01b600052602260045260246000fd5b50919050565b61247280620003546000396000f3fe608060405234801561001057600080fd5b50600436106101575760003560e01c80638da5cb5b116100c3578063cd53d08e1161007c578063cd53d08e146102f9578063d2a6b51a14610322578063e38e3b2414610335578063e985e9c514610348578063f242432a14610384578063f2fde38b1461039757600080fd5b80638da5cb5b1461026e57806395d89b4114610298578063a22cb465146102a0578063b48ab8b6146102b3578063bd85b039146102c6578063c204642c146102e657600080fd5b80632eb2c2d6116101155780632eb2c2d6146102025780634e1273f4146102155780635c975abb14610235578063715018a614610240578063731133e9146102485780637e518ec81461025b57600080fd5b8062fdd58e1461015c57806301ffc9a71461018257806306fdde03146101a55780630e89341c146101ba578063162094c4146101cd5780632693ebf2146101e2575b600080fd5b61016f61016a3660046117b3565b6103aa565b6040519081526020015b60405180910390f35b6101956101903660046117f3565b610440565b6040519015158152602001610179565b6101ad610492565b6040516101799190611864565b6101ad6101c8366004611877565b610520565b6101e06101db366004611945565b6105ed565b005b61016f6101f0366004611877565b60076020526000908152604090205481565b6101e0610210366004611a1f565b610619565b610228610223366004611b35565b610665565b6040516101799190611bc9565b60035460ff16610195565b6101e061078e565b6101e0610256366004611bdc565b6107a2565b6101e0610269366004611c3c565b6107e6565b60035461010090046001600160a01b03165b6040516001600160a01b039091168152602001610179565b6101ad610805565b6101e06102ae366004611c78565b610812565b6101e06102c1366004611cb4565b61081d565b61016f6102d4366004611877565b60009081526008602052604090205490565b6101e06102f4366004611d40565b6108a9565b610280610307366004611877565b6006602052600090815260409020546001600160a01b031681565b6101e0610330366004611d84565b610911565b61016f610343366004611e0f565b6109ae565b610195610356366004611e98565b6001600160a01b03918216600090815260016020908152604080832093909416825291909152205460ff1690565b6101e0610392366004611ecb565b610aa4565b6101e06103a5366004611f2f565b610ae9565b60006001600160a01b03831661041a5760405162461bcd60e51b815260206004820152602a60248201527f455243313135353a2061646472657373207a65726f206973206e6f742061207660448201526930b634b21037bbb732b960b11b60648201526084015b60405180910390fd5b506000908152602081815260408083206001600160a01b03949094168352929052205490565b60006001600160e01b03198216636cdb3d1360e11b148061047157506001600160e01b031982166303a24d0760e21b145b8061048c57506301ffc9a760e01b6001600160e01b03198316145b92915050565b6004805461049f90611f4a565b80601f01602080910402602001604051908101604052809291908181526020018280546104cb90611f4a565b80156105185780601f106104ed57610100808354040283529160200191610518565b820191906000526020600020905b8154815290600101906020018083116104fb57829003601f168201915b505050505081565b6000818152600660205260409020546060906001600160a01b031661059b5760405162461bcd60e51b815260206004820152602b60248201527f474141564542616467653a2055524920717565727920666f72206e6f6e65786960448201526a39ba32b73a103a37b5b2b760a91b6064820152608401610411565b6105a6600283611f85565b6105c9576040518060800160405280604881526020016123ad6048913992915050565b6040518060800160405280604881526020016123f56048913992915050565b919050565b6105f5610b62565b600082815260096020908152604090912082516106149284019061168f565b505050565b6001600160a01b03851633148061063557506106358533610356565b6106515760405162461bcd60e51b815260040161041190611fa7565b61065e8585858585610bc2565b5050505050565b606081518351146106ca5760405162461bcd60e51b815260206004820152602960248201527f455243313135353a206163636f756e747320616e6420696473206c656e677468604482015268040dad2e6dac2e8c6d60bb1b6064820152608401610411565b600083516001600160401b038111156106e5576106e5611890565b60405190808252806020026020018201604052801561070e578160200160208202803683370190505b50905060005b84518110156107865761075985828151811061073257610732611ff6565b602002602001015185838151811061074c5761074c611ff6565b60200260200101516103aa565b82828151811061076b5761076b611ff6565b602090810291909101015261077f81612022565b9050610714565b509392505050565b610796610b62565b6107a06000610d6c565b565b60008381526006602052604090205483906001600160a01b031633146107da5760405162461bcd60e51b81526004016104119061203d565b61065e85858585610dc6565b6107ee610b62565b805161080190600a90602084019061168f565b5050565b6005805461049f90611f4a565b610801338383610dfb565b60005b835181101561089657600084828151811061083d5761083d611ff6565b602090810291909101810151600081815260069092526040909120549091506001600160a01b031633146108835760405162461bcd60e51b81526004016104119061203d565b508061088e81612022565b915050610820565b506108a384848484610edc565b50505050565b6108b1610b62565b60005b8251811015610614576108ff8382815181106108d2576108d2611ff6565b6020026020010151836001604051806040016040528060048152602001630307830360e41b8152506107a2565b8061090981612022565b9150506108b4565b6001600160a01b0382166109675760405162461bcd60e51b815260206004820152601c60248201527f474141564542616467653a20494e56414c49445f414444524553532e000000006044820152606401610411565b60005b815181101561061457600082828151811061098757610987611ff6565b6020026020010151905061099b8482610f5f565b50806109a681612022565b91505061096a565b60006109b8610b62565b60006109c2610fc6565b90506109cc610fdc565b600081815260066020526040902080546001600160a01b031916331790558415610a45576000818152600960205260409020610a09908787611713565b50807f6bb7ff708619ba0610cba295a58592e0451dee2622938c8755667688daf3529b8787604051610a3c929190612072565b60405180910390a25b610a8788828987878080601f016020809104026020016040519081016040528093929190818152602001838380828437600092019190915250610dc692505050565b600081815260076020526040902087905590509695505050505050565b6001600160a01b038516331480610ac05750610ac08533610356565b610adc5760405162461bcd60e51b815260040161041190611fa7565b61065e8585858585610ff3565b610af1610b62565b6001600160a01b038116610b565760405162461bcd60e51b815260206004820152602660248201527f4f776e61626c653a206e6577206f776e657220697320746865207a65726f206160448201526564647265737360d01b6064820152608401610411565b610b5f81610d6c565b50565b6003546001600160a01b036101009091041633146107a05760405162461bcd60e51b815260206004820181905260248201527f4f776e61626c653a2063616c6c6572206973206e6f7420746865206f776e65726044820152606401610411565b8151835114610be35760405162461bcd60e51b8152600401610411906120a1565b6001600160a01b038416610c095760405162461bcd60e51b8152600401610411906120e9565b33610c1881878787878761112b565b60005b8451811015610cfe576000858281518110610c3857610c38611ff6565b602002602001015190506000858381518110610c5657610c56611ff6565b602090810291909101810151600084815280835260408082206001600160a01b038e168352909352919091205490915081811015610ca65760405162461bcd60e51b81526004016104119061212e565b6000838152602081815260408083206001600160a01b038e8116855292528083208585039055908b16825281208054849290610ce3908490612178565b9250508190555050505080610cf790612022565b9050610c1b565b50846001600160a01b0316866001600160a01b0316826001600160a01b03167f4a39dc06d4c0dbc64b70af90fd698a233a518aa5d07e595d983b8c0526c8f7fb8787604051610d4e929190612190565b60405180910390a4610d648187878787876111ea565b505050505050565b600380546001600160a01b03838116610100818102610100600160a81b031985161790945560405193909204169182907f8be0079c531659141344cd1fd0a4f28419497f9722a3daafe3b4186f6b6457e090600090a35050565b610dd28484848461134f565b60008381526008602052604081208054849290610df0908490612178565b909155505050505050565b816001600160a01b0316836001600160a01b03161415610e6f5760405162461bcd60e51b815260206004820152602960248201527f455243313135353a2073657474696e6720617070726f76616c20737461747573604482015268103337b91039b2b63360b91b6064820152608401610411565b6001600160a01b03838116600081815260016020908152604080832094871680845294825291829020805460ff191686151590811790915591519182527f17307eab39ab6107e8899845ad3d59bd9653f200f220920489ca2b5937696c31910160405180910390a3505050565b610ee88484848461142f565b60005b835181101561065e57828181518110610f0657610f06611ff6565b602002602001015160086000868481518110610f2457610f24611ff6565b602002602001015181526020019081526020016000206000828254610f499190612178565b90915550610f58905081612022565b9050610eeb565b60008181526006602052604090205481906001600160a01b03163314610f975760405162461bcd60e51b81526004016104119061203d565b50600090815260066020526040902080546001600160a01b0319166001600160a01b0392909216919091179055565b6000600b546001610fd79190612178565b905090565b600b8054906000610fec83612022565b9190505550565b6001600160a01b0384166110195760405162461bcd60e51b8152600401610411906120e9565b33600061102585611589565b9050600061103285611589565b905061104283898985858961112b565b6000868152602081815260408083206001600160a01b038c168452909152902054858110156110835760405162461bcd60e51b81526004016104119061212e565b6000878152602081815260408083206001600160a01b038d8116855292528083208985039055908a168252812080548892906110c0908490612178565b909155505060408051888152602081018890526001600160a01b03808b16928c821692918816917fc3d58168c5ae7397731d063d5bbf3d657854427343f4c083240f7aacaa2d0f62910160405180910390a4611120848a8a8a8a8a6115d4565b505050505050505050565b6001600160a01b038516156111825760405162461bcd60e51b815260206004820152601e60248201527f474141564542616467653a204e6f6e2d7472616e736665727261626c652e00006044820152606401610411565b60035460ff1615610d645760405162461bcd60e51b815260206004820152602c60248201527f455243313135355061757361626c653a20746f6b656e207472616e736665722060448201526b1dda1a5b19481c185d5cd95960a21b6064820152608401610411565b6001600160a01b0384163b15610d645760405163bc197c8160e01b81526001600160a01b0385169063bc197c819061122e90899089908890889088906004016121be565b6020604051808303816000875af1925050508015611269575060408051601f3d908101601f191682019092526112669181019061221c565b60015b61131657611275612239565b806308c379a014156112af575061128a612255565b8061129557506112b1565b8060405162461bcd60e51b81526004016104119190611864565b505b60405162461bcd60e51b815260206004820152603460248201527f455243313135353a207472616e7366657220746f206e6f6e20455243313135356044820152732932b1b2b4bb32b91034b6b83632b6b2b73a32b960611b6064820152608401610411565b6001600160e01b0319811663bc197c8160e01b146113465760405162461bcd60e51b8152600401610411906122de565b50505050505050565b6001600160a01b0384166113755760405162461bcd60e51b815260040161041190612326565b33600061138185611589565b9050600061138e85611589565b905061139f8360008985858961112b565b6000868152602081815260408083206001600160a01b038b168452909152812080548792906113cf908490612178565b909155505060408051878152602081018790526001600160a01b03808a1692600092918716917fc3d58168c5ae7397731d063d5bbf3d657854427343f4c083240f7aacaa2d0f62910160405180910390a4611346836000898989896115d4565b6001600160a01b0384166114555760405162461bcd60e51b815260040161041190612326565b81518351146114765760405162461bcd60e51b8152600401610411906120a1565b336114868160008787878761112b565b60005b8451811015611521578381815181106114a4576114a4611ff6565b60200260200101516000808784815181106114c1576114c1611ff6565b602002602001015181526020019081526020016000206000886001600160a01b03166001600160a01b0316815260200190815260200160002060008282546115099190612178565b9091555081905061151981612022565b915050611489565b50846001600160a01b031660006001600160a01b0316826001600160a01b03167f4a39dc06d4c0dbc64b70af90fd698a233a518aa5d07e595d983b8c0526c8f7fb8787604051611572929190612190565b60405180910390a461065e816000878787876111ea565b604080516001808252818301909252606091600091906020808301908036833701905050905082816000815181106115c3576115c3611ff6565b602090810291909101015292915050565b6001600160a01b0384163b15610d645760405163f23a6e6160e01b81526001600160a01b0385169063f23a6e61906116189089908990889088908890600401612367565b6020604051808303816000875af1925050508015611653575060408051601f3d908101601f191682019092526116509181019061221c565b60015b61165f57611275612239565b6001600160e01b0319811663f23a6e6160e01b146113465760405162461bcd60e51b8152600401610411906122de565b82805461169b90611f4a565b90600052602060002090601f0160209004810192826116bd5760008555611703565b82601f106116d657805160ff1916838001178555611703565b82800160010185558215611703579182015b828111156117035782518255916020019190600101906116e8565b5061170f929150611787565b5090565b82805461171f90611f4a565b90600052602060002090601f0160209004810192826117415760008555611703565b82601f1061175a5782800160ff19823516178555611703565b82800160010185558215611703579182015b8281111561170357823582559160200191906001019061176c565b5b8082111561170f5760008155600101611788565b80356001600160a01b03811681146105e857600080fd5b600080604083850312156117c657600080fd5b6117cf8361179c565b946020939093013593505050565b6001600160e01b031981168114610b5f57600080fd5b60006020828403121561180557600080fd5b8135611810816117dd565b9392505050565b6000815180845260005b8181101561183d57602081850181015186830182015201611821565b8181111561184f576000602083870101525b50601f01601f19169290920160200192915050565b6020815260006118106020830184611817565b60006020828403121561188957600080fd5b5035919050565b634e487b7160e01b600052604160045260246000fd5b601f8201601f191681016001600160401b03811182821017156118cb576118cb611890565b6040525050565b600082601f8301126118e357600080fd5b81356001600160401b038111156118fc576118fc611890565b604051611913601f8301601f1916602001826118a6565b81815284602083860101111561192857600080fd5b816020850160208301376000918101602001919091529392505050565b6000806040838503121561195857600080fd5b8235915060208301356001600160401b0381111561197557600080fd5b611981858286016118d2565b9150509250929050565b60006001600160401b038211156119a4576119a4611890565b5060051b60200190565b600082601f8301126119bf57600080fd5b813560206119cc8261198b565b6040516119d982826118a6565b83815260059390931b85018201928281019150868411156119f957600080fd5b8286015b84811015611a1457803583529183019183016119fd565b509695505050505050565b600080600080600060a08688031215611a3757600080fd5b611a408661179c565b9450611a4e6020870161179c565b935060408601356001600160401b0380821115611a6a57600080fd5b611a7689838a016119ae565b94506060880135915080821115611a8c57600080fd5b611a9889838a016119ae565b93506080880135915080821115611aae57600080fd5b50611abb888289016118d2565b9150509295509295909350565b600082601f830112611ad957600080fd5b81356020611ae68261198b565b604051611af382826118a6565b83815260059390931b8501820192828101915086841115611b1357600080fd5b8286015b84811015611a1457611b288161179c565b8352918301918301611b17565b60008060408385031215611b4857600080fd5b82356001600160401b0380821115611b5f57600080fd5b611b6b86838701611ac8565b93506020850135915080821115611b8157600080fd5b50611981858286016119ae565b600081518084526020808501945080840160005b83811015611bbe57815187529582019590820190600101611ba2565b509495945050505050565b6020815260006118106020830184611b8e565b60008060008060808587031215611bf257600080fd5b611bfb8561179c565b9350602085013592506040850135915060608501356001600160401b03811115611c2457600080fd5b611c30878288016118d2565b91505092959194509250565b600060208284031215611c4e57600080fd5b81356001600160401b03811115611c6457600080fd5b611c70848285016118d2565b949350505050565b60008060408385031215611c8b57600080fd5b611c948361179c565b915060208301358015158114611ca957600080fd5b809150509250929050565b60008060008060808587031215611cca57600080fd5b611cd38561179c565b935060208501356001600160401b0380821115611cef57600080fd5b611cfb888389016119ae565b94506040870135915080821115611d1157600080fd5b611d1d888389016119ae565b93506060870135915080821115611d3357600080fd5b50611c30878288016118d2565b60008060408385031215611d5357600080fd5b82356001600160401b03811115611d6957600080fd5b611d7585828601611ac8565b95602094909401359450505050565b60008060408385031215611d9757600080fd5b611da08361179c565b915060208301356001600160401b03811115611dbb57600080fd5b611981858286016119ae565b60008083601f840112611dd957600080fd5b5081356001600160401b03811115611df057600080fd5b602083019150836020828501011115611e0857600080fd5b9250929050565b60008060008060008060808789031215611e2857600080fd5b611e318761179c565b95506020870135945060408701356001600160401b0380821115611e5457600080fd5b611e608a838b01611dc7565b90965094506060890135915080821115611e7957600080fd5b50611e8689828a01611dc7565b979a9699509497509295939492505050565b60008060408385031215611eab57600080fd5b611eb48361179c565b9150611ec26020840161179c565b90509250929050565b600080600080600060a08688031215611ee357600080fd5b611eec8661179c565b9450611efa6020870161179c565b9350604086013592506060860135915060808601356001600160401b03811115611f2357600080fd5b611abb888289016118d2565b600060208284031215611f4157600080fd5b6118108261179c565b600181811c90821680611f5e57607f821691505b60208210811415611f7f57634e487b7160e01b600052602260045260246000fd5b50919050565b600082611fa257634e487b7160e01b600052601260045260246000fd5b500690565b6020808252602f908201527f455243313135353a2063616c6c6572206973206e6f7420746f6b656e206f776e60408201526e195c881b9bdc88185c1c1c9bdd9959608a1b606082015260800190565b634e487b7160e01b600052603260045260246000fd5b634e487b7160e01b600052601160045260246000fd5b60006000198214156120365761203661200c565b5060010190565b6020808252818101527f474141564542616467653a204f4e4c595f43524541544f525f414c4c4f574544604082015260600190565b60208152816020820152818360408301376000818301604090810191909152601f909201601f19160101919050565b60208082526028908201527f455243313135353a2069647320616e6420616d6f756e7473206c656e677468206040820152670dad2e6dac2e8c6d60c31b606082015260800190565b60208082526025908201527f455243313135353a207472616e7366657220746f20746865207a65726f206164604082015264647265737360d81b606082015260800190565b6020808252602a908201527f455243313135353a20696e73756666696369656e742062616c616e636520666f60408201526939103a3930b739b332b960b11b606082015260800190565b6000821982111561218b5761218b61200c565b500190565b6040815260006121a36040830185611b8e565b82810360208401526121b58185611b8e565b95945050505050565b6001600160a01b0386811682528516602082015260a0604082018190526000906121ea90830186611b8e565b82810360608401526121fc8186611b8e565b905082810360808401526122108185611817565b98975050505050505050565b60006020828403121561222e57600080fd5b8151611810816117dd565b600060033d11156122525760046000803e5060005160e01c5b90565b600060443d10156122635790565b6040516003193d81016004833e81513d6001600160401b03816024840111818411171561229257505050505090565b82850191508151818111156122aa5750505050505090565b843d87010160208285010111156122c45750505050505090565b6122d3602082860101876118a6565b509095945050505050565b60208082526028908201527f455243313135353a204552433131353552656365697665722072656a656374656040820152676420746f6b656e7360c01b606082015260800190565b60208082526021908201527f455243313135353a206d696e7420746f20746865207a65726f206164647265736040820152607360f81b606082015260800190565b6001600160a01b03868116825285166020820152604081018490526060810183905260a0608082018190526000906123a190830184611817565b97965050505050505056fe697066733a2f2f62616679626569653669797a6b787979616766666f36326a6169616c6232753368336f367633326179716674747a69657a7778633266797237656d2f312e706e67697066733a2f2f62616679626569653669797a6b787979616766666f36326a6169616c6232753368336f367633326179716674747a69657a7778633266797237656d2f322e706e67a2646970667358221220d2edd0dd8365ee578b016a5597e8f85799f34c0de489590af61cd2e74747760e64736f6c634300080a0033",
  "devdoc": {
    "kind": "dev",
    "methods": {
      "airdrop(address[],uint256)": {
        "params": {
          "_addresses": "List of addresses"
        }
      },
      "balanceOf(address,uint256)": {
        "details": "See {IERC1155-balanceOf}. Requirements: - `account` cannot be the zero address."
      },
      "balanceOfBatch(address[],uint256[])": {
        "details": "See {IERC1155-balanceOfBatch}. Requirements: - `accounts` and `ids` must have the same length."
      },
      "batchMint(address,uint256[],uint256[],bytes)": {
        "details": "Mint tokens for each id in _ids",
        "params": {
          "_data": "Data to pass if receiver is contract",
          "_ids": "Array of ids to mint",
          "_quantities": "Array of amounts of tokens to mint per id",
          "_to": "The address to mint tokens to"
        }
      },
      "create(address,uint256,string,bytes)": {
        "details": "Creates a new token type and assigns _initialSupply to an address NOTE: remove onlyOwner if you want third parties to create new tokens on your contract (which may change your IDs)",
        "params": {
          "_data": "Data to pass if receiver is contract",
          "_initialOwner": "address of the first owner of the token",
          "_initialSupply": "amount to supply the first owner",
          "_uri": "Optional URI for this token type"
        },
        "returns": {
          "_0": "The newly created token ID"
        }
      },
      "isApprovedForAll(address,address)": {
        "details": "See {IERC1155-isApprovedForAll}."
      },
      "mint(address,uint256,uint256,bytes)": {
        "details": "Mints some amount of tokens to an address",
        "params": {
          "_data": "Data to pass if receiver is contract",
          "_id": "Token ID to mint",
          "_quantity": "Amount of tokens to mint",
          "_to": "Address of the future owner of the token"
        }
      },
      "owner()": {
        "details": "Returns the address of the current owner."
      },
      "paused()": {
        "details": "Returns true if the contract is paused, and false otherwise."
      },
      "renounceOwnership()": {
        "details": "Leaves the contract without owner. It will not be possible to call `onlyOwner` functions anymore. Can only be called by the current owner. NOTE: Renouncing ownership will leave the contract without an owner, thereby removing any functionality that is only available to the owner."
      },
      "safeBatchTransferFrom(address,address,uint256[],uint256[],bytes)": {
        "details": "See {IERC1155-safeBatchTransferFrom}."
      },
      "safeTransferFrom(address,address,uint256,uint256,bytes)": {
        "details": "See {IERC1155-safeTransferFrom}."
      },
      "setApprovalForAll(address,bool)": {
        "details": "See {IERC1155-setApprovalForAll}."
      },
      "setBaseMetadataURI(string)": {
        "details": "Will update the base URL of token's URI",
        "params": {
          "_newBaseMetadataURI": "New base URL of token's URI"
        }
      },
      "setCreator(address,uint256[])": {
        "details": "Change the creator address for given tokens",
        "params": {
          "_ids": "Array of Token IDs to change creator",
          "_to": "Address of the new creator"
        }
      },
      "setTokenURI(uint256,string)": {
        "details": "Will update the token URL of token's URI"
      },
      "supportsInterface(bytes4)": {
        "details": "See {IERC165-supportsInterface}."
      },
      "totalSupply(uint256)": {
        "details": "Total amount of tokens in with a given id."
      },
      "transferOwnership(address)": {
        "details": "Transfers ownership of the contract to a new account (`newOwner`). Can only be called by the current owner."
      }
    },
    "version": 1
  },
  "userdoc": {
    "kind": "user",
    "methods": {
      "airdrop(address[],uint256)": {
        "notice": "Airdrop"
      }
    },
    "version": 1
  },
  "storageLayout": {
    "storage": [
      {
        "astId": 372,
        "contract": "contracts/GAAVEBadge.sol:GAAVEBadge",
        "label": "_balances",
        "offset": 0,
        "slot": "0",
        "type": "t_mapping(t_uint256,t_mapping(t_address,t_uint256))"
      },
      {
        "astId": 378,
        "contract": "contracts/GAAVEBadge.sol:GAAVEBadge",
        "label": "_operatorApprovals",
        "offset": 0,
        "slot": "1",
        "type": "t_mapping(t_address,t_mapping(t_address,t_bool))"
      },
      {
        "astId": 380,
        "contract": "contracts/GAAVEBadge.sol:GAAVEBadge",
        "label": "_uri",
        "offset": 0,
        "slot": "2",
        "type": "t_string_storage"
      },
      {
        "astId": 256,
        "contract": "contracts/GAAVEBadge.sol:GAAVEBadge",
        "label": "_paused",
        "offset": 0,
        "slot": "3",
        "type": "t_bool"
      },
      {
        "astId": 53,
        "contract": "contracts/GAAVEBadge.sol:GAAVEBadge",
        "label": "_owner",
        "offset": 1,
        "slot": "3",
        "type": "t_address"
      },
      {
        "astId": 2420,
        "contract": "contracts/GAAVEBadge.sol:GAAVEBadge",
        "label": "name",
        "offset": 0,
        "slot": "4",
        "type": "t_string_storage"
      },
      {
        "astId": 2422,
        "contract": "contracts/GAAVEBadge.sol:GAAVEBadge",
        "label": "symbol",
        "offset": 0,
        "slot": "5",
        "type": "t_string_storage"
      },
      {
        "astId": 2426,
        "contract": "contracts/GAAVEBadge.sol:GAAVEBadge",
        "label": "creators",
        "offset": 0,
        "slot": "6",
        "type": "t_mapping(t_uint256,t_address)"
      },
      {
        "astId": 2430,
        "contract": "contracts/GAAVEBadge.sol:GAAVEBadge",
        "label": "tokenSupply",
        "offset": 0,
        "slot": "7",
        "type": "t_mapping(t_uint256,t_uint256)"
      },
      {
        "astId": 2434,
        "contract": "contracts/GAAVEBadge.sol:GAAVEBadge",
        "label": "_totalSupply",
        "offset": 0,
        "slot": "8",
        "type": "t_mapping(t_uint256,t_uint256)"
      },
      {
        "astId": 2438,
        "contract": "contracts/GAAVEBadge.sol:GAAVEBadge",
        "label": "_tokenURIs",
        "offset": 0,
        "slot": "9",
        "type": "t_mapping(t_uint256,t_string_storage)"
      },
      {
        "astId": 2440,
        "contract": "contracts/GAAVEBadge.sol:GAAVEBadge",
        "label": "baseTokenURI",
        "offset": 0,
        "slot": "10",
        "type": "t_string_storage"
      },
      {
        "astId": 2443,
        "contract": "contracts/GAAVEBadge.sol:GAAVEBadge",
        "label": "_currentTokenID",
        "offset": 0,
        "slot": "11",
        "type": "t_uint256"
      }
    ],
    "types": {
      "t_address": {
        "encoding": "inplace",
        "label": "address",
        "numberOfBytes": "20"
      },
      "t_bool": {
        "encoding": "inplace",
        "label": "bool",
        "numberOfBytes": "1"
      },
      "t_mapping(t_address,t_bool)": {
        "encoding": "mapping",
        "key": "t_address",
        "label": "mapping(address => bool)",
        "numberOfBytes": "32",
        "value": "t_bool"
      },
      "t_mapping(t_address,t_mapping(t_address,t_bool))": {
        "encoding": "mapping",
        "key": "t_address",
        "label": "mapping(address => mapping(address => bool))",
        "numberOfBytes": "32",
        "value": "t_mapping(t_address,t_bool)"
      },
      "t_mapping(t_address,t_uint256)": {
        "encoding": "mapping",
        "key": "t_address",
        "label": "mapping(address => uint256)",
        "numberOfBytes": "32",
        "value": "t_uint256"
      },
      "t_mapping(t_uint256,t_address)": {
        "encoding": "mapping",
        "key": "t_uint256",
        "label": "mapping(uint256 => address)",
        "numberOfBytes": "32",
        "value": "t_address"
      },
      "t_mapping(t_uint256,t_mapping(t_address,t_uint256))": {
        "encoding": "mapping",
        "key": "t_uint256",
        "label": "mapping(uint256 => mapping(address => uint256))",
        "numberOfBytes": "32",
        "value": "t_mapping(t_address,t_uint256)"
      },
      "t_mapping(t_uint256,t_string_storage)": {
        "encoding": "mapping",
        "key": "t_uint256",
        "label": "mapping(uint256 => string)",
        "numberOfBytes": "32",
        "value": "t_string_storage"
      },
      "t_mapping(t_uint256,t_uint256)": {
        "encoding": "mapping",
        "key": "t_uint256",
        "label": "mapping(uint256 => uint256)",
        "numberOfBytes": "32",
        "value": "t_uint256"
      },
      "t_string_storage": {
        "encoding": "bytes",
        "label": "string",
        "numberOfBytes": "32"
      },
      "t_uint256": {
        "encoding": "inplace",
        "label": "uint256",
        "numberOfBytes": "32"
      }
    }
  }
}