{
  "address": "0x755a88Cc002A0186198f8c9D406526570AD4Fb4A",
  "abi": [
    {
      "inputs": [
        {
          "internalType": "contract IWETHGateway",
          "name": "_WETH_GATEWAY",
          "type": "address"
        },
        {
          "internalType": "contract IPool",
          "name": "_AAVE_POOL",
          "type": "address"
        },
        {
          "internalType": "address",
          "name": "_WETH",
          "type": "address"
        },
        {
          "internalType": "contract IERC20[]",
          "name": "_tokenAddresses",
          "type": "address[]"
        },
        {
          "internalType": "contract IERC20[]",
          "name": "_ATokenAddresses",
          "type": "address[]"
        },
        {
          "internalType": "address[]",
          "name": "_priceFeeds",
          "type": "address[]"
        },
        {
          "internalType": "contract IGAAVEBadge",
          "name": "_GAAVEBadge",
          "type": "address"
        }
      ],
      "stateMutability": "nonpayable",
      "type": "constructor"
    },
    {
      "anonymous": false,
      "inputs": [
        {
          "indexed": false,
          "internalType": "address",
          "name": "_campaignAddress",
          "type": "address"
        },
        {
          "indexed": false,
          "internalType": "uint256",
          "name": "_campaignId",
          "type": "uint256"
        },
        {
          "indexed": false,
          "internalType": "uint256[]",
          "name": "_thresholds",
          "type": "uint256[]"
        }
      ],
      "name": "CampaignProposed",
      "type": "event"
    },
    {
      "anonymous": false,
      "inputs": [
        {
          "indexed": true,
          "internalType": "address",
          "name": "_user",
          "type": "address"
        },
        {
          "indexed": true,
          "internalType": "uint256",
          "name": "_id",
          "type": "uint256"
        },
        {
          "indexed": false,
          "internalType": "address",
          "name": "_address",
          "type": "address"
        }
      ],
      "name": "ClaimBadge",
      "type": "event"
    },
    {
      "anonymous": false,
      "inputs": [
        {
          "indexed": true,
          "internalType": "address",
          "name": "_user",
          "type": "address"
        },
        {
          "indexed": true,
          "internalType": "address",
          "name": "_tokenAddress",
          "type": "address"
        },
        {
          "indexed": true,
          "internalType": "uint256",
          "name": "_amount",
          "type": "uint256"
        }
      ],
      "name": "Deposited",
      "type": "event"
    },
    {
      "anonymous": false,
      "inputs": [
        {
          "indexed": true,
          "internalType": "address",
          "name": "_user",
          "type": "address"
        },
        {
          "indexed": true,
          "internalType": "uint256",
          "name": "_amount",
          "type": "uint256"
        }
      ],
      "name": "DepositedETH",
      "type": "event"
    },
    {
      "anonymous": false,
      "inputs": [
        {
          "indexed": true,
          "internalType": "address",
          "name": "_user",
          "type": "address"
        },
        {
          "indexed": true,
          "internalType": "address",
          "name": "_tokenAddress",
          "type": "address"
        },
        {
          "indexed": true,
          "internalType": "uint256",
          "name": "_amount",
          "type": "uint256"
        }
      ],
      "name": "Withdrawn",
      "type": "event"
    },
    {
      "anonymous": false,
      "inputs": [
        {
          "indexed": true,
          "internalType": "address",
          "name": "_user",
          "type": "address"
        },
        {
          "indexed": true,
          "internalType": "uint256",
          "name": "_amount",
          "type": "uint256"
        }
      ],
      "name": "WithdrawnETH",
      "type": "event"
    },
    {
      "inputs": [],
      "name": "AAVE_ETH_POOL",
      "outputs": [
        {
          "internalType": "address",
          "name": "",
          "type": "address"
        }
      ],
      "stateMutability": "view",
      "type": "function"
    },
    {
      "inputs": [],
      "name": "AAVE_POOL",
      "outputs": [
        {
          "internalType": "contract IPool",
          "name": "",
          "type": "address"
        }
      ],
      "stateMutability": "view",
      "type": "function"
    },
    {
      "inputs": [],
      "name": "GAAVEBadge",
      "outputs": [
        {
          "internalType": "contract IGAAVEBadge",
          "name": "",
          "type": "address"
        }
      ],
      "stateMutability": "view",
      "type": "function"
    },
    {
      "inputs": [],
      "name": "WETH",
      "outputs": [
        {
          "internalType": "address",
          "name": "",
          "type": "address"
        }
      ],
      "stateMutability": "view",
      "type": "function"
    },
    {
      "inputs": [],
      "name": "WETH_GATEWAY",
      "outputs": [
        {
          "internalType": "contract IWETHGateway",
          "name": "",
          "type": "address"
        }
      ],
      "stateMutability": "view",
      "type": "function"
    },
    {
      "inputs": [
        {
          "internalType": "uint256",
          "name": "",
          "type": "uint256"
        }
      ],
      "name": "aTokenAddresses",
      "outputs": [
        {
          "internalType": "contract IERC20",
          "name": "",
          "type": "address"
        }
      ],
      "stateMutability": "view",
      "type": "function"
    },
    {
      "inputs": [],
      "name": "badgeIdCounter",
      "outputs": [
        {
          "internalType": "uint256",
          "name": "",
          "type": "uint256"
        }
      ],
      "stateMutability": "view",
      "type": "function"
    },
    {
      "inputs": [],
      "name": "campaignId",
      "outputs": [
        {
          "internalType": "uint256",
          "name": "",
          "type": "uint256"
        }
      ],
      "stateMutability": "view",
      "type": "function"
    },
    {
      "inputs": [
        {
          "internalType": "address",
          "name": "",
          "type": "address"
        }
      ],
      "name": "campaignOwner",
      "outputs": [
        {
          "internalType": "uint256",
          "name": "",
          "type": "uint256"
        }
      ],
      "stateMutability": "view",
      "type": "function"
    },
    {
      "inputs": [
        {
          "internalType": "uint256",
          "name": "_campaignId",
          "type": "uint256"
        },
        {
          "internalType": "address",
          "name": "_claimant",
          "type": "address"
        }
      ],
      "name": "canClaim",
      "outputs": [
        {
          "internalType": "uint256[]",
          "name": "eligibleBadges",
          "type": "uint256[]"
        }
      ],
      "stateMutability": "view",
      "type": "function"
    },
    {
      "inputs": [
        {
          "internalType": "uint256",
          "name": "_campaignId",
          "type": "uint256"
        }
      ],
      "name": "claimBadge",
      "outputs": [],
      "stateMutability": "nonpayable",
      "type": "function"
    },
    {
      "inputs": [
        {
          "internalType": "uint256",
          "name": "_campaignId",
          "type": "uint256"
        }
      ],
      "name": "claimableETH",
      "outputs": [
        {
          "internalType": "uint256",
          "name": "",
          "type": "uint256"
        }
      ],
      "stateMutability": "view",
      "type": "function"
    },
    {
      "inputs": [
        {
          "internalType": "uint256",
          "name": "_campaignId",
          "type": "uint256"
        },
        {
          "internalType": "address",
          "name": "_tokenAddress",
          "type": "address"
        }
      ],
      "name": "claimableToken",
      "outputs": [
        {
          "internalType": "uint256",
          "name": "",
          "type": "uint256"
        }
      ],
      "stateMutability": "view",
      "type": "function"
    },
    {
      "inputs": [
        {
          "internalType": "address",
          "name": "_campaignOwner",
          "type": "address"
        }
      ],
      "name": "deployPool",
      "outputs": [
        {
          "internalType": "address",
          "name": "",
          "type": "address"
        }
      ],
      "stateMutability": "nonpayable",
      "type": "function"
    },
    {
      "inputs": [
        {
          "internalType": "uint256",
          "name": "_campaignId",
          "type": "uint256"
        },
        {
          "internalType": "address",
          "name": "_tokenAddress",
          "type": "address"
        },
        {
          "internalType": "uint256",
          "name": "_amount",
          "type": "uint256"
        }
      ],
      "name": "deposit",
      "outputs": [],
      "stateMutability": "nonpayable",
      "type": "function"
    },
    {
      "inputs": [
        {
          "internalType": "uint256",
          "name": "_campaignId",
          "type": "uint256"
        }
      ],
      "name": "depositETH",
      "outputs": [],
      "stateMutability": "payable",
      "type": "function"
    },
    {
      "inputs": [],
      "name": "getCampaignCount",
      "outputs": [
        {
          "internalType": "uint256",
          "name": "",
          "type": "uint256"
        }
      ],
      "stateMutability": "view",
      "type": "function"
    },
    {
      "inputs": [
        {
          "internalType": "address",
          "name": "_priceFeed",
          "type": "address"
        }
      ],
      "name": "getLatestPrice",
      "outputs": [
        {
          "internalType": "uint256",
          "name": "",
          "type": "uint256"
        }
      ],
      "stateMutability": "view",
      "type": "function"
    },
    {
      "inputs": [
        {
          "internalType": "uint256",
          "name": "_campaignId",
          "type": "uint256"
        },
        {
          "internalType": "address",
          "name": "_supporter",
          "type": "address"
        },
        {
          "internalType": "address",
          "name": "_tokenAddress",
          "type": "address"
        }
      ],
      "name": "getSupporterBalance",
      "outputs": [
        {
          "internalType": "uint256",
          "name": "",
          "type": "uint256"
        }
      ],
      "stateMutability": "view",
      "type": "function"
    },
    {
      "inputs": [
        {
          "internalType": "uint256",
          "name": "_campaignId",
          "type": "uint256"
        },
        {
          "internalType": "address",
          "name": "_supporter",
          "type": "address"
        }
      ],
      "name": "getSupporterETHBalance",
      "outputs": [
        {
          "internalType": "uint256",
          "name": "",
          "type": "uint256"
        }
      ],
      "stateMutability": "view",
      "type": "function"
    },
    {
      "inputs": [
        {
          "internalType": "uint256",
          "name": "index",
          "type": "uint256"
        }
      ],
      "name": "getTokenAddress",
      "outputs": [
        {
          "internalType": "contract IERC20",
          "name": "",
          "type": "address"
        }
      ],
      "stateMutability": "view",
      "type": "function"
    },
    {
      "inputs": [
        {
          "internalType": "address",
          "name": "token",
          "type": "address"
        }
      ],
      "name": "getTokenToPriceFeed",
      "outputs": [
        {
          "internalType": "address",
          "name": "priceFeed",
          "type": "address"
        }
      ],
      "stateMutability": "view",
      "type": "function"
    },
    {
      "inputs": [],
      "name": "poolImplementationLib",
      "outputs": [
        {
          "internalType": "address",
          "name": "",
          "type": "address"
        }
      ],
      "stateMutability": "view",
      "type": "function"
    },
    {
      "inputs": [
        {
          "internalType": "uint256[]",
          "name": "_thresholds",
          "type": "uint256[]"
        },
        {
          "internalType": "string[]",
          "name": "_cids",
          "type": "string[]"
        }
      ],
      "name": "proposeCampaign",
      "outputs": [],
      "stateMutability": "nonpayable",
      "type": "function"
    },
    {
      "inputs": [
        {
          "internalType": "uint256",
          "name": "",
          "type": "uint256"
        }
      ],
      "name": "tokenAddresses",
      "outputs": [
        {
          "internalType": "contract IERC20",
          "name": "",
          "type": "address"
        }
      ],
      "stateMutability": "view",
      "type": "function"
    },
    {
      "inputs": [
        {
          "internalType": "address",
          "name": "",
          "type": "address"
        },
        {
          "internalType": "uint256",
          "name": "",
          "type": "uint256"
        }
      ],
      "name": "tokenIds",
      "outputs": [
        {
          "internalType": "uint256",
          "name": "",
          "type": "uint256"
        }
      ],
      "stateMutability": "view",
      "type": "function"
    },
    {
      "inputs": [
        {
          "internalType": "address",
          "name": "",
          "type": "address"
        }
      ],
      "name": "tokenToPriceFeed",
      "outputs": [
        {
          "internalType": "address",
          "name": "",
          "type": "address"
        }
      ],
      "stateMutability": "view",
      "type": "function"
    },
    {
      "inputs": [
        {
          "internalType": "address",
          "name": "",
          "type": "address"
        },
        {
          "internalType": "address",
          "name": "",
          "type": "address"
        }
      ],
      "name": "userInfo",
      "outputs": [
        {
          "internalType": "uint256",
          "name": "ethAmount",
          "type": "uint256"
        },
        {
          "internalType": "uint256",
          "name": "timeEntered",
          "type": "uint256"
        },
        {
          "internalType": "uint256",
          "name": "powerAccumulated",
          "type": "uint256"
        }
      ],
      "stateMutability": "view",
      "type": "function"
    },
    {
      "inputs": [
        {
          "internalType": "uint256",
          "name": "_campaignId",
          "type": "uint256"
        },
        {
          "internalType": "address",
          "name": "_tokenAddress",
          "type": "address"
        },
        {
          "internalType": "uint256",
          "name": "_amount",
          "type": "uint256"
        }
      ],
      "name": "withdraw",
      "outputs": [],
      "stateMutability": "nonpayable",
      "type": "function"
    },
    {
      "inputs": [
        {
          "internalType": "uint256",
          "name": "_campaignId",
          "type": "uint256"
        },
        {
          "internalType": "uint256",
          "name": "_amount",
          "type": "uint256"
        }
      ],
      "name": "withdrawETH",
      "outputs": [],
      "stateMutability": "nonpayable",
      "type": "function"
    }
  ],
  "transactionHash": "0xe0fc83b3b2b5b75df36ff7155e7f2732ced88c600af1f2f72795b9390a3a5236",
  "args": [
    "0x2a58E9bbb5434FdA7FF78051a4B82cb0EF669C17",
    "0x6C9fB0D5bD9429eb9Cd96B85B81d872281771E6B",
    "0xb685400156cF3CBE8725958DeAA61436727A30c3",
    [
      "0x9A753f0F7886C9fbF63cF59D0D4423C5eFaCE95B",
      "0xb685400156cF3CBE8725958DeAA61436727A30c3"
    ],
    [
      "0x9A753f0F7886C9fbF63cF59D0D4423C5eFaCE95B",
      "0xb685400156cF3CBE8725958DeAA61436727A30c3"
    ],
    [
      "0x0FCAa9c899EC5A91eBc3D5Dd869De833b06fB046",
      "0xd0D5e3DB44DE05E9F294BB0a3bEEaF030DE24Ada"
    ],
    "0x1E85B71b031Eb76BFE09b3551c09FDd2e8f20c90"
  ],
  "numDeployments": 3,
  "solcInputHash": "2de049f9ae39f0664d6e91fb65433f09",
  "bytecode": "0x6080604052600880546001600160a01b031916736c9fb0d5bd9429eb9cd96b85b81d872281771e6b1790556000600d819055600e553480156200004157600080fd5b506040516200415d3803806200415d8339810160408190526200006491620004b3565b8151845114620000e05760405162461bcd60e51b815260206004820152603b60248201527f4741415645436f72653a206e756d626572206f6620746f6b656e20616464726560448201527f73736573206d757374206d617463682070726963652066656564730000000000606482015260840160405180910390fd5b600580546001600160a01b03808a166001600160a01b0319928316179092556007805488841690831617905560068054898416908316179055600a80549284169290911691909117905583516200013f90600b90602087019062000334565b5082516200015590600c90602086019062000334565b5060005b8451811015620001fb5782818151811062000178576200017862000595565b60200260200101516003600087848151811062000199576200019962000595565b60200260200101516001600160a01b03166001600160a01b0316815260200190815260200160002060006101000a8154816001600160a01b0302191690836001600160a01b031602179055508080620001f290620005ab565b91505062000159565b5060006040516200020c906200039e565b604051809103906000f08015801562000229573d6000803e3d6000fd5b50604080516002808252606082018352929350600092909160208301908036833701905050905060008160008151811062000268576200026862000595565b6020026020010181815250506001816001815181106200028c576200028c62000595565b6020908102919091010152600a5460405163f41d0c7b60e01b81526001600160a01b038085169263f41d0c7b92620002d092309233929116908790600401620005d5565b600060405180830381600087803b158015620002eb57600080fd5b505af115801562000300573d6000803e3d6000fd5b5050600980546001600160a01b0319166001600160a01b039590951694909417909355506200064398505050505050505050565b8280548282559060005260206000209081019282156200038c579160200282015b828111156200038c57825182546001600160a01b0319166001600160a01b0390911617825560209092019160019091019062000355565b506200039a929150620003ac565b5090565b6123c08062001d9d83390190565b5b808211156200039a5760008155600101620003ad565b6001600160a01b0381168114620003d957600080fd5b50565b8051620003e981620003c3565b919050565b634e487b7160e01b600052604160045260246000fd5b600082601f8301126200041657600080fd5b815160206001600160401b0380831115620004355762000435620003ee565b8260051b604051601f19603f830116810181811084821117156200045d576200045d620003ee565b6040529384528581018301938381019250878511156200047c57600080fd5b83870191505b84821015620004a85781516200049881620003c3565b8352918301919083019062000482565b979650505050505050565b600080600080600080600060e0888a031215620004cf57600080fd5b8751620004dc81620003c3565b6020890151909750620004ef81620003c3565b9550620004ff60408901620003dc565b60608901519095506001600160401b03808211156200051d57600080fd5b6200052b8b838c0162000404565b955060808a01519150808211156200054257600080fd5b620005508b838c0162000404565b945060a08a01519150808211156200056757600080fd5b50620005768a828b0162000404565b9250506200058760c08901620003dc565b905092959891949750929550565b634e487b7160e01b600052603260045260246000fd5b6000600019821415620005ce57634e487b7160e01b600052601160045260246000fd5b5060010190565b6001600160a01b038581168252848116602080840191909152908416604083015260806060830181905283519083018190526000918481019160a085019190845b81811015620006345784518452938201939282019260010162000616565b50919998505050505050505050565b61174a80620006536000396000f3fe6080604052600436106101cd5760003560e01c80638078f22c116100f7578063bfe3630511610095578063e63697c811610064578063e63697c8146105a8578063e79873be146105c8578063eabc59a4146105e8578063f8100bbb146105fe57600080fd5b8063bfe3630514610528578063c7cdea3714610548578063d2390bbf14610568578063e5df8b841461058857600080fd5b8063a67d5658116100d1578063a67d5658146104a8578063ad5c4648146104c8578063ae5a98ba146104e8578063bc157ac11461050857600080fd5b80638078f22c146104235780638c856f9c146104595780638ed5b0fc1461049257600080fd5b80633b053e4b1161016f57806367ccdf381161013e57806367ccdf38146103a25780636caa9218146103c257806378bef8a2146103d65780637f00b8d3146103f657600080fd5b80633b053e4b1461032f5780633de419e91461034f57806346667bd31461036f5780635358fbda1461038f57600080fd5b806323415135116101ab57806323415135146102a157806326923d80146102c357806329a13494146102e257806329a2e8e61461030257600080fd5b806308a01675146101d25780630f208beb1461020f57806316345f1814610273575b600080fd5b3480156101de57600080fd5b506006546101f2906001600160a01b031681565b6040516001600160a01b0390911681526020015b60405180910390f35b34801561021b57600080fd5b5061025861022a3660046111cb565b6002602081815260009384526040808520909152918352912090810154600382015460049092015490919083565b60408051938452602084019290925290820152606001610206565b34801561027f57600080fd5b5061029361028e3660046111fe565b61061e565b604051908152602001610206565b3480156102ad57600080fd5b506102c16102bc366004611219565b610695565b005b3480156102cf57600080fd5b506102c16102de366004611386565b5050565b3480156102ee57600080fd5b506101f26102fd3660046111fe565b6108e4565b34801561030e57600080fd5b5061032261031d36600461143f565b610ad4565b604051610206919061149d565b34801561033b57600080fd5b5061029361034a3660046114b0565b610b5b565b34801561035b57600080fd5b5061029361036a3660046114ec565b610beb565b34801561037b57600080fd5b5061029361038a366004611219565b610c1c565b6102c161039d366004611219565b610c99565b3480156103ae57600080fd5b506101f26103bd366004611219565b610d48565b3480156103ce57600080fd5b506000610293565b3480156103e257600080fd5b506101f26103f1366004611219565b610d78565b34801561040257600080fd5b506102936104113660046111fe565b60016020526000908152604090205481565b34801561042f57600080fd5b506101f261043e3660046111fe565b6003602052600090815260409020546001600160a01b031681565b34801561046557600080fd5b506101f26104743660046111fe565b6001600160a01b039081166000908152600360205260409020541690565b34801561049e57600080fd5b50610293600d5481565b3480156104b457600080fd5b50600a546101f2906001600160a01b031681565b3480156104d457600080fd5b506007546101f2906001600160a01b031681565b3480156104f457600080fd5b506005546101f2906001600160a01b031681565b34801561051457600080fd5b506102c1610523366004611516565b610da2565b34801561053457600080fd5b506009546101f2906001600160a01b031681565b34801561055457600080fd5b506102c161056336600461154b565b610e6d565b34801561057457600080fd5b506008546101f2906001600160a01b031681565b34801561059457600080fd5b506101f26105a3366004611219565b610f31565b3480156105b457600080fd5b506102c16105c3366004611516565b610f41565b3480156105d457600080fd5b506102936105e336600461143f565b61100c565b3480156105f457600080fd5b50610293600e5481565b34801561060a57600080fd5b5061029361061936600461143f565b611090565b6000808290506000816001600160a01b031663feaf968c6040518163ffffffff1660e01b815260040160a060405180830381865afa158015610664573d6000803e3d6000fd5b505050506040513d601f19601f820116820180604052508101906106889190611587565b5091979650505050505050565b60008181526020819052604080822054905163bf3506c160e01b81523360048201526001600160a01b039091169063bf3506c190602401600060405180830381865afa1580156106e9573d6000803e3d6000fd5b505050506040513d6000823e601f3d908101601f1916820160405261071191908101906115d7565b905060005b81518110156108df57600a5482516001600160a01b039091169062fdd58e90339085908590811061074957610749611668565b60200260200101516040518363ffffffff1660e01b81526004016107829291906001600160a01b03929092168252602082015260400190565b602060405180830381865afa15801561079f573d6000803e3d6000fd5b505050506040513d601f19601f820116820180604052508101906107c3919061167e565b6108cd57600a5482516001600160a01b039091169063731133e99033908590859081106107f2576107f2611668565b60209081029190910101516040516001600160e01b031960e085901b1681526001600160a01b039092166004830152602482015260016044820152608060648201526000608482015260a401600060405180830381600087803b15801561085857600080fd5b505af115801561086c573d6000803e3d6000fd5b5050505081818151811061088257610882611668565b602002602001015160046000336001600160a01b03166001600160a01b0316815260200190815260200160002082815481106108c0576108c0611668565b6000918252602090912001555b806108d7816116ad565b915050610716565b505050565b6001600160a01b038116600090815260016020526040812054156109695760405162461bcd60e51b815260206004820152603160248201527f4741415645436f72653a204f776e657220616c72656164792068617320616e206044820152706f6e676f696e672063616d706169676e2160781b60648201526084015b60405180910390fd5b600954600090610981906001600160a01b0316611117565b6040805160028082526060820183529293506000929091602083019080368337019050509050600e54816000815181106109bd576109bd611668565b6020908102919091010152600e546109d69060016116c8565b816001815181106109e9576109e9611668565b6020908102919091010152600a5460405163f41d0c7b60e01b81526001600160a01b038085169263f41d0c7b92610a2b9230928a9291169087906004016116e0565b600060405180830381600087803b158015610a4557600080fd5b505af1158015610a59573d6000803e3d6000fd5b505050506002600e6000828254610a7091906116c8565b925050819055506001600d6000828254610a8a91906116c8565b9091555050600d546001600160a01b0394851660009081526001602090815260408083208490559282528190522080546001600160a01b0319169483169490941790935592915050565b6000828152602081905260409081902054905163bf3506c160e01b81526001600160a01b038381166004830152606092169063bf3506c190602401600060405180830381865afa158015610b2c573d6000803e3d6000fd5b505050506040513d6000823e601f3d908101601f19168201604052610b5491908101906115d7565b5092915050565b60008381526020819052604080822054905163a423ea7d60e01b81526001600160a01b0385811660048301528481166024830152909116908290829063a423ea7d90604401602060405180830381865afa158015610bbd573d6000803e3d6000fd5b505050506040513d601f19601f82011682018060405250810190610be1919061167e565b9695505050505050565b60046020528160005260406000208181548110610c0757600080fd5b90600052602060002001600091509150505481565b600081815260208181526040808320548151630b4670bd60e21b815291516001600160a01b03909116928392632d19c2f492600480830193928290030181865afa158015610c6e573d6000803e3d6000fd5b505050506040513d601f19601f82011682018060405250810190610c92919061167e565b9392505050565b60008181526020819052604090819020549051631696d40360e11b81523360048201526001600160a01b03909116908190632d2da806906024016020604051808303816000875af1158015610cf2573d6000803e3d6000fd5b505050506040513d601f19601f82011682018060405250810190610d16919061167e565b50604051349033907f81ad7215cbec0a1d55a48f38b34525d2b677147ee7ceb872ac23ecca5ec966e590600090a35050565b6000600b8281548110610d5d57610d5d611668565b6000918252602090912001546001600160a01b031692915050565b600c8181548110610d8857600080fd5b6000918252602090912001546001600160a01b0316905081565b60008381526020819052604090819020549051633d14d1b760e21b81526001600160a01b0384811660048301526024820184905233604483015290911690819063f45346dc906064016020604051808303816000875af1158015610e0a573d6000803e3d6000fd5b505050506040513d601f19601f82011682018060405250810190610e2e919061167e565b5060405182906001600160a01b0385169033907f8752a472e571a816aea92eec8dae9baf628e840f4929fbcc2d155e6233ff68a790600090a450505050565b60008281526020819052604090819020549051631b08c5a960e11b8152600481018390523360248201526001600160a01b039091169081906336118b52906044016020604051808303816000875af1158015610ecd573d6000803e3d6000fd5b505050506040513d601f19601f82011682018060405250810190610ef1919061167e565b5060075460405183916001600160a01b03169033907fd1c19fbcd4551a5edfb66d43d2e337c04837afda3482b42bdf569a8fccdae5fb90600090a4505050565b600b8181548110610d8857600080fd5b60008381526020819052604090819020549051631a4ca37b60e21b81526001600160a01b038481166004830152602482018490523360448301529091169081906369328dec906064016020604051808303816000875af1158015610fa9573d6000803e3d6000fd5b505050506040513d601f19601f82011682018060405250810190610fcd919061167e565b5060405182906001600160a01b0385169033907fd1c19fbcd4551a5edfb66d43d2e337c04837afda3482b42bdf569a8fccdae5fb90600090a450505050565b60008281526020819052604080822054905163e12e05a760e01b81526001600160a01b03848116600483015290911690819063e12e05a790602401602060405180830381865afa158015611064573d6000803e3d6000fd5b505050506040513d601f19601f82011682018060405250810190611088919061167e565b949350505050565b60008281526020819052604080822054905163715f669f60e11b81526001600160a01b038481166004830152909116908290829063e2becd3e90602401602060405180830381865afa1580156110ea573d6000803e3d6000fd5b505050506040513d601f19601f8201168201806040525081019061110e919061167e565b95945050505050565b6000604051733d602d80600a3d3981f3363d3d373d3d3d363d7360601b81528260601b60148201526e5af43d82803e903d91602b57fd5bf360881b60288201526037816000f09150506001600160a01b0381166111af5760405162461bcd60e51b8152602060048201526016602482015275115490cc4c4d8dce8818dc99585d194819985a5b195960521b6044820152606401610960565b919050565b80356001600160a01b03811681146111af57600080fd5b600080604083850312156111de57600080fd5b6111e7836111b4565b91506111f5602084016111b4565b90509250929050565b60006020828403121561121057600080fd5b610c92826111b4565b60006020828403121561122b57600080fd5b5035919050565b634e487b7160e01b600052604160045260246000fd5b604051601f8201601f1916810167ffffffffffffffff8111828210171561127157611271611232565b604052919050565b600067ffffffffffffffff82111561129357611293611232565b5060051b60200190565b6000601f83818401126112af57600080fd5b823560206112c46112bf83611279565b611248565b82815260059290921b850181019181810190878411156112e357600080fd5b8287015b8481101561137a57803567ffffffffffffffff808211156113085760008081fd5b818a0191508a603f83011261131d5760008081fd5b8582013560408282111561133357611333611232565b611344828b01601f19168901611248565b92508183528c8183860101111561135b5760008081fd5b81818501898501375060009082018701528452509183019183016112e7565b50979650505050505050565b6000806040838503121561139957600080fd5b823567ffffffffffffffff808211156113b157600080fd5b818501915085601f8301126113c557600080fd5b813560206113d56112bf83611279565b82815260059290921b840181019181810190898411156113f457600080fd5b948201945b83861015611412578535825294820194908201906113f9565b9650508601359250508082111561142857600080fd5b506114358582860161129d565b9150509250929050565b6000806040838503121561145257600080fd5b823591506111f5602084016111b4565b600081518084526020808501945080840160005b8381101561149257815187529582019590820190600101611476565b509495945050505050565b602081526000610c926020830184611462565b6000806000606084860312156114c557600080fd5b833592506114d5602085016111b4565b91506114e3604085016111b4565b90509250925092565b600080604083850312156114ff57600080fd5b611508836111b4565b946020939093013593505050565b60008060006060848603121561152b57600080fd5b8335925061153b602085016111b4565b9150604084013590509250925092565b6000806040838503121561155e57600080fd5b50508035926020909101359150565b805169ffffffffffffffffffff811681146111af57600080fd5b600080600080600060a0868803121561159f57600080fd5b6115a88661156d565b94506020860151935060408601519250606086015191506115cb6080870161156d565b90509295509295909350565b600060208083850312156115ea57600080fd5b825167ffffffffffffffff81111561160157600080fd5b8301601f8101851361161257600080fd5b80516116206112bf82611279565b81815260059190911b8201830190838101908783111561163f57600080fd5b928401925b8284101561165d57835182529284019290840190611644565b979650505050505050565b634e487b7160e01b600052603260045260246000fd5b60006020828403121561169057600080fd5b5051919050565b634e487b7160e01b600052601160045260246000fd5b60006000198214156116c1576116c1611697565b5060010190565b600082198211156116db576116db611697565b500190565b6001600160a01b038581168252848116602083015283166040820152608060608201819052600090610be19083018461146256fea2646970667358221220b594d461dc895f1dcc6d235d419e5b7d32bd342675c008f59c95b78085175da664736f6c634300080a0033608060405234801561001057600080fd5b506123a0806100206000396000f3fe60806040526004361061012a5760003560e01c80636b6c0774116100ab578063cf0b22701161006f578063cf0b227014610391578063dda5e8e1146103b1578063e12e05a7146103c6578063e2becd3e146103e6578063f41d0c7b1461041f578063f45346dc1461044157600080fd5b80636b6c07741461029057806391d768de146102c857806398807d84146102e8578063a423ea7d1461031e578063bf3506c11461036457600080fd5b806336118b52116100f257806336118b52146101cd57806342bf1901146101ed578063647c75e214610202578063672729991461025b57806369328dec1461027057600080fd5b80630429b9ca1461012f5780630738ce51146101585780631e83409a146101855780632d19c2f4146101a55780632d2da806146101ba575b600080fd5b34801561013b57600080fd5b5061014560085481565b6040519081526020015b60405180910390f35b34801561016457600080fd5b5061014561017336600461203f565b60076020526000908152604090205481565b34801561019157600080fd5b506101456101a036600461203f565b610454565b3480156101b157600080fd5b50610145610523565b6101456101c836600461203f565b61062e565b3480156101d957600080fd5b506101456101e8366004612063565b610b9b565b3480156101f957600080fd5b50610145610fea565b34801561020e57600080fd5b5061024061021d36600461203f565b600360208190526000918252604090912060028101549181015460049091015483565b6040805193845260208401929092529082015260600161014f565b34801561026757600080fd5b50610145611530565b34801561027c57600080fd5b5061014561028b366004612093565b611587565b34801561029c57600080fd5b506001546102b0906001600160a01b031681565b6040516001600160a01b03909116815260200161014f565b3480156102d457600080fd5b506002546102b0906001600160a01b031681565b3480156102f457600080fd5b5061014561030336600461203f565b6001600160a01b031660009081526007602052604090205490565b34801561032a57600080fd5b506101456103393660046120d5565b6001600160a01b03918216600090815260036020908152604080832093909416825291909152205490565b34801561037057600080fd5b5061038461037f36600461203f565b6118c2565b60405161014f9190612103565b34801561039d57600080fd5b506000546102b0906001600160a01b031681565b3480156103bd57600080fd5b50600854610145565b3480156103d257600080fd5b506101456103e136600461203f565b61196c565b3480156103f257600080fd5b5061014561040136600461203f565b6001600160a01b031660009081526003602052604090206002015490565b34801561042b57600080fd5b5061043f61043a366004612147565b6119fd565b005b61014561044f366004612093565b611b79565b6001546000906001600160a01b0316331461048a5760405162461bcd60e51b8152600401610481906121f2565b60405180910390fd5b60006104958361196c565b600154604051630cf99be760e31b81526000600482015291925061051c916001600160a01b03909116906367ccdf3890602401602060405180830381865afa1580156104e5573d6000803e3d6000fd5b505050506040513d601f19601f820116820180604052508101906105099190612229565b60005483906001600160a01b0316611587565b5092915050565b600154604051630cf99be760e31b81526000600482018190529182916001600160a01b03909116906367ccdf3890602401602060405180830381865afa158015610571573d6000803e3d6000fd5b505050506040513d601f19601f820116820180604052508101906105959190612229565b90506105b6816001600160a01b031660009081526007602052604090205490565b6040516370a0823160e01b81523060048201526001600160a01b038316906370a0823190602401602060405180830381865afa1580156105fa573d6000803e3d6000fd5b505050506040513d601f19601f8201168201806040525081019061061e9190612246565b6106289190612275565b91505090565b6001546000906001600160a01b0316331461065b5760405162461bcd60e51b8152600401610481906121f2565b6001600160a01b03808316600090815260036020908152604080832060015482516315ab88c960e31b81529251349692954295909492909316926316345f18928492638c856f9c92849263ad5c464892600480830193928290030181865afa1580156106cb573d6000803e3d6000fd5b505050506040513d601f19601f820116820180604052508101906106ef9190612229565b6040516001600160e01b031960e084901b1681526001600160a01b039091166004820152602401602060405180830381865afa158015610733573d6000803e3d6000fd5b505050506040513d601f19601f820116820180604052508101906107579190612229565b6040516001600160e01b031960e084901b1681526001600160a01b039091166004820152602401602060405180830381865afa15801561079b573d6000803e3d6000fd5b505050506040513d601f19601f820116820180604052508101906107bf9190612246565b9050600160009054906101000a90046001600160a01b03166001600160a01b031663ae5a98ba6040518163ffffffff1660e01b8152600401602060405180830381865afa158015610814573d6000803e3d6000fd5b505050506040513d601f19601f820116820180604052508101906108389190612229565b6001600160a01b031663474cf53d85600160009054906101000a90046001600160a01b03166001600160a01b031663d2390bbf6040518163ffffffff1660e01b8152600401602060405180830381865afa15801561089a573d6000803e3d6000fd5b505050506040513d601f19601f820116820180604052508101906108be9190612229565b6040516001600160e01b031960e085901b1681526001600160a01b039091166004820152306024820152600060448201526064016000604051808303818588803b15801561090b57600080fd5b505af115801561091f573d6000803e3d6000fd5b50505050508260020154600014156109d9576000600480850182905534600286015560018054604080516315ab88c960e31b815290518695938901946001600160a01b039093169263ad5c4648928082019260209290918290030181865afa15801561098f573d6000803e3d6000fd5b505050506040513d601f19601f820116820180604052508101906109b39190612229565b6001600160a01b0316815260208101919091526040016000205560038301829055610b7a565b60038301546109e89083612275565b6002846001016000600160009054906101000a90046001600160a01b03166001600160a01b031663ad5c46486040518163ffffffff1660e01b8152600401602060405180830381865afa158015610a43573d6000803e3d6000fd5b505050506040513d601f19601f82011682018060405250810190610a679190612229565b6001600160a01b03168152602081019190915260400160002054610a8b908461228c565b8560020154610a9a91906122a4565b610aa491906122c3565b610aae91906122a4565b836004016000828254610ac1919061228c565b9250508190555034836002016000828254610adc919061228c565b90915550506003830182905560018054604080516315ab88c960e31b8152905184938701926000926001600160a01b039091169163ad5c4648916004808201926020929091908290030181865afa158015610b3b573d6000803e3d6000fd5b505050506040513d601f19601f82011682018060405250810190610b5f9190612229565b6001600160a01b031681526020810191909152604001600020555b8360086000828254610b8c919061228c565b90915550939695505050505050565b6001546000906001600160a01b03163314610bc85760405162461bcd60e51b8152600401610481906121f2565b6001600160a01b038216600090815260036020526040902060028101548410610c035760405162461bcd60e51b8152600401610481906122e5565b600154604080516315ab88c960e31b815290516000926001600160a01b0316916316345f18918391638c856f9c91839163ad5c46489160048083019260209291908290030181865afa158015610c5d573d6000803e3d6000fd5b505050506040513d601f19601f82011682018060405250810190610c819190612229565b6040516001600160e01b031960e084901b1681526001600160a01b039091166004820152602401602060405180830381865afa158015610cc5573d6000803e3d6000fd5b505050506040513d601f19601f82011682018060405250810190610ce99190612229565b6040516001600160e01b031960e084901b1681526001600160a01b039091166004820152602401602060405180830381865afa158015610d2d573d6000803e3d6000fd5b505050506040513d601f19601f82011682018060405250810190610d519190612246565b9050600160009054906101000a90046001600160a01b03166001600160a01b031663ae5a98ba6040518163ffffffff1660e01b8152600401602060405180830381865afa158015610da6573d6000803e3d6000fd5b505050506040513d601f19601f82011682018060405250810190610dca9190612229565b6001600160a01b03166380500d20600160009054906101000a90046001600160a01b03166001600160a01b031663ad5c46486040518163ffffffff1660e01b8152600401602060405180830381865afa158015610e2b573d6000803e3d6000fd5b505050506040513d601f19601f82011682018060405250810190610e4f9190612229565b6040516001600160e01b031960e084901b1681526001600160a01b03909116600482015260248101889052336044820152606401600060405180830381600087803b158015610e9d57600080fd5b505af1158015610eb1573d6000803e3d6000fd5b5050506003830154429150610ec69082612275565b6002846001016000600160009054906101000a90046001600160a01b03166001600160a01b031663ad5c46486040518163ffffffff1660e01b8152600401602060405180830381865afa158015610f21573d6000803e3d6000fd5b505050506040513d601f19601f82011682018060405250810190610f459190612229565b6001600160a01b03168152602081019190915260400160002054610f69908561228c565b8560020154610f7891906122a4565b610f8291906122c3565b610f8c91906122a4565b836004016000828254610f9f919061228c565b9250508190555085836002016000828254610fba9190612275565b90915550506003830181905560088054879190600090610fdb908490612275565b90915550959695505050505050565b60018054604051630cf99be760e31b815260009283926001600160a01b0316916367ccdf38916110209160040190815260200190565b602060405180830381865afa15801561103d573d6000803e3d6000fd5b505050506040513d601f19601f820116820180604052508101906110619190612229565b6040516370a0823160e01b81523060048201526001600160a01b0391909116906370a0823190602401602060405180830381865afa1580156110a7573d6000803e3d6000fd5b505050506040513d601f19601f820116820180604052508101906110cb9190612246565b90506110d660085490565b6110e09082612275565b60018054604051630cf99be760e31b815260048101929092529192506000916001600160a01b0316906316345f18908290638c856f9c9082906367ccdf3890602401602060405180830381865afa15801561113f573d6000803e3d6000fd5b505050506040513d601f19601f820116820180604052508101906111639190612229565b6040516001600160e01b031960e084901b1681526001600160a01b039091166004820152602401602060405180830381865afa1580156111a7573d6000803e3d6000fd5b505050506040513d601f19601f820116820180604052508101906111cb9190612229565b6040516001600160e01b031960e084901b1681526001600160a01b039091166004820152602401602060405180830381865afa15801561120f573d6000803e3d6000fd5b505050506040513d601f19601f820116820180604052508101906112339190612246565b9050670de0b6b3a764000061124882846122a4565b61125291906122c3565b600154604051630cf99be760e31b81526000600482018190529295506001600160a01b03909116906367ccdf3890602401602060405180830381865afa1580156112a0573d6000803e3d6000fd5b505050506040513d601f19601f820116820180604052508101906112c49190612229565b6040516370a0823160e01b81523060048201526001600160a01b0391909116906370a0823190602401602060405180830381865afa15801561130a573d6000803e3d6000fd5b505050506040513d601f19601f8201168201806040525081019061132e9190612246565b600154604051630cf99be760e31b8152600060048201529192506113a2916001600160a01b03909116906367ccdf3890602401602060405180830381865afa15801561137e573d6000803e3d6000fd5b505050506040513d601f19601f820116820180604052508101906103039190612229565b6113ac9082612275565b600154604051630cf99be760e31b81526000600482018190529293506001600160a01b03909116906316345f18908290638c856f9c9082906367ccdf3890602401602060405180830381865afa15801561140a573d6000803e3d6000fd5b505050506040513d601f19601f8201168201806040525081019061142e9190612229565b6040516001600160e01b031960e084901b1681526001600160a01b039091166004820152602401602060405180830381865afa158015611472573d6000803e3d6000fd5b505050506040513d601f19601f820116820180604052508101906114969190612229565b6040516001600160e01b031960e084901b1681526001600160a01b039091166004820152602401602060405180830381865afa1580156114da573d6000803e3d6000fd5b505050506040513d601f19601f820116820180604052508101906114fe9190612246565b9050670de0b6b3a764000061151382846122a4565b61151d91906122c3565b611527908661228c565b94505050505090565b6001546000906001600160a01b0316331461155d5760405162461bcd60e51b8152600401610481906121f2565b6000611567610523565b6000549091506115819082906001600160a01b0316610b9b565b50905090565b6001546000906001600160a01b031633146115b45760405162461bcd60e51b8152600401610481906121f2565b6001600160a01b03808316600090815260036020908152604080832093881683529083905290205484106115fa5760405162461bcd60e51b8152600401610481906122e5565b6001546040516323215be760e21b81526001600160a01b03878116600483015260009216906316345f18908290638c856f9c90602401602060405180830381865afa15801561164d573d6000803e3d6000fd5b505050506040513d601f19601f820116820180604052508101906116719190612229565b6040516001600160e01b031960e084901b1681526001600160a01b039091166004820152602401602060405180830381865afa1580156116b5573d6000803e3d6000fd5b505050506040513d601f19601f820116820180604052508101906116d99190612246565b9050600160009054906101000a90046001600160a01b03166001600160a01b03166308a016756040518163ffffffff1660e01b8152600401602060405180830381865afa15801561172e573d6000803e3d6000fd5b505050506040513d601f19601f820116820180604052508101906117529190612229565b604051631a4ca37b60e21b81526001600160a01b0388811660048301526024820188905233604483015291909116906369328dec906064016020604051808303816000875af11580156117a9573d6000803e3d6000fd5b505050506040513d601f19601f820116820180604052508101906117cd9190612246565b50600382015442906117df9082612275565b6001600160a01b0388166000908152600185016020526040902054600290611807908561228c565b6001600160a01b038a1660009081526020879052604090205461182a91906122a4565b61183491906122c3565b61183e91906122a4565b836004016000828254611851919061228c565b90915550506001600160a01b0387166000908152602084905260408120805488929061187e908490612275565b9091555050600383018190556001600160a01b038716600090815260076020526040812080548892906118b2908490612275565b9091555095979650505050505050565b6060600560005b8154811015611965578160010181815481106118e7576118e7612339565b60009182526020808320909101546001600160a01b03871683526003909152604090912060040154106119535781600001818154811061192957611929612339565b906000526020600020015483828151811061194657611946612339565b6020026020010181815250505b8061195d8161234f565b9150506118c9565b5050919050565b6001600160a01b0381166000908152600760205260408120546040516370a0823160e01b81523060048201526001600160a01b038416906370a0823190602401602060405180830381865afa1580156119c9573d6000803e3d6000fd5b505050506040513d601f19601f820116820180604052508101906119ed9190612246565b6119f79190612275565b92915050565b6000546001600160a01b031615611a565760405162461bcd60e51b815260206004820152601e60248201527f4741415645506f6f6c3a20416c726561647920696e697469616c697a656400006044820152606401610481565b600180546001600160a01b038781166001600160a01b03199283161790925560008054928716929091169190911781556040805160028082526060820183529091602083019080368337019050509050678ac7230489e8000081600081518110611ac257611ac2612339565b60200260200101818152505068056bc75e2d6310000081600181518110611aeb57611aeb612339565b6020026020010181815250506040518060400160405280848480806020026020016040519081016040528093929190818152602001838360200280828437600092019190915250505090825250602090810183905281518051600592611b55928492910190611fc7565b506020828101518051611b6e9260018501920190611fc7565b505050505050505050565b6001546000906001600160a01b03163314611ba65760405162461bcd60e51b8152600401610481906121f2565b6001600160a01b0382811660009081526003602052604080822060015491516323215be760e21b81528885166004820152909342939216906316345f18908290638c856f9c90602401602060405180830381865afa158015611c0c573d6000803e3d6000fd5b505050506040513d601f19601f82011682018060405250810190611c309190612229565b6040516001600160e01b031960e084901b1681526001600160a01b039091166004820152602401602060405180830381865afa158015611c74573d6000803e3d6000fd5b505050506040513d601f19601f82011682018060405250810190611c989190612246565b9050600160009054906101000a90046001600160a01b03166001600160a01b03166308a016756040518163ffffffff1660e01b8152600401602060405180830381865afa158015611ced573d6000803e3d6000fd5b505050506040513d601f19601f82011682018060405250810190611d119190612229565b60405163e8eda9df60e01b81526001600160a01b0389811660048301526024820189905230604483015260006064830152919091169063e8eda9df90608401600060405180830381600087803b158015611d6a57600080fd5b505af1158015611d7e573d6000803e3d6000fd5b505050506001600160a01b038716600090815260208490526040902054611e5357600060048085018290556001600160a01b03808a168352602086815260408085203490556001805482516315ab88c960e31b815292518897928b01969295919091169363ad5c46489380840193919291908290030181865afa158015611e09573d6000803e3d6000fd5b505050506040513d601f19601f82011682018060405250810190611e2d9190612229565b6001600160a01b0316815260208101919091526040016000205560038301829055611f9f565b6003830154611e629083612275565b6001600160a01b0388166000908152600185016020526040902054600290611e8a908461228c565b6001600160a01b038a16600090815260208790526040902054611ead91906122a4565b611eb791906122c3565b611ec191906122a4565b836004016000828254611ed4919061228c565b90915550506001600160a01b03871660009081526020849052604081208054349290611f0190849061228c565b90915550506003830182905560018054604080516315ab88c960e31b8152905184938701926000926001600160a01b039091169163ad5c4648916004808201926020929091908290030181865afa158015611f60573d6000803e3d6000fd5b505050506040513d601f19601f82011682018060405250810190611f849190612229565b6001600160a01b031681526020810191909152604001600020555b6001600160a01b038716600090815260076020526040812080548892906118b290849061228c565b828054828255906000526020600020908101928215612002579160200282015b82811115612002578251825591602001919060010190611fe7565b5061200e929150612012565b5090565b5b8082111561200e5760008155600101612013565b6001600160a01b038116811461203c57600080fd5b50565b60006020828403121561205157600080fd5b813561205c81612027565b9392505050565b6000806040838503121561207657600080fd5b82359150602083013561208881612027565b809150509250929050565b6000806000606084860312156120a857600080fd5b83356120b381612027565b92506020840135915060408401356120ca81612027565b809150509250925092565b600080604083850312156120e857600080fd5b82356120f381612027565b9150602083013561208881612027565b6020808252825182820181905260009190848201906040850190845b8181101561213b5783518352928401929184019160010161211f565b50909695505050505050565b60008060008060006080868803121561215f57600080fd5b853561216a81612027565b9450602086013561217a81612027565b9350604086013561218a81612027565b9250606086013567ffffffffffffffff808211156121a757600080fd5b818801915088601f8301126121bb57600080fd5b8135818111156121ca57600080fd5b8960208260051b85010111156121df57600080fd5b9699959850939650602001949392505050565b6020808252601a908201527f4741415645506f6f6c3a204f6e6c79204741415645436f726521000000000000604082015260600190565b60006020828403121561223b57600080fd5b815161205c81612027565b60006020828403121561225857600080fd5b5051919050565b634e487b7160e01b600052601160045260246000fd5b6000828210156122875761228761225f565b500390565b6000821982111561229f5761229f61225f565b500190565b60008160001904831182151516156122be576122be61225f565b500290565b6000826122e057634e487b7160e01b600052601260045260246000fd5b500490565b60208082526034908201527f4741415645436f72653a20576974686472617720616d6f756e74206d6f7265206040820152731d1a185b88195e1a5cdd1a5b99c8185b5bdd5b9d60621b606082015260800190565b634e487b7160e01b600052603260045260246000fd5b60006000198214156123635761236361225f565b506001019056fea2646970667358221220f014dbd0bbfcb3eefda6a63da222cc42d01cc7349847f46e5a577727ca4bd3f764736f6c634300080a0033",
  "devdoc": {
    "kind": "dev",
    "methods": {
      "deposit(uint256,address,uint256)": {
        "params": {
          "_amount": "The amount of tokens to deposit",
          "_campaignId": "The id of the specific campaign",
          "_tokenAddress": "The address of the pool"
        }
      },
      "depositETH(uint256)": {
        "params": {
          "_campaignId": "the id of the specific campaign"
        }
      },
      "getLatestPrice(address)": {
        "returns": {
          "_0": "The value of the token in USD"
        }
      },
      "withdraw(uint256,address,uint256)": {
        "params": {
          "_amount": "The amount of tokens to withdraw",
          "_campaignId": "The id of the specific campaign",
          "_tokenAddress": "The address of the token to withdraw"
        }
      },
      "withdrawETH(uint256,uint256)": {
        "params": {
          "_amount": "The amount of tokens to withdraw",
          "_campaignId": "Pool Id"
        }
      }
    },
    "version": 1
  },
  "userdoc": {
    "kind": "user",
    "methods": {
      "canClaim(uint256,address)": {
        "notice": "Check if the claimant is eligible for badge id"
      },
      "claimBadge(uint256)": {
        "notice": "Claim badges from GAAVE"
      },
      "deposit(uint256,address,uint256)": {
        "notice": "Deposit Crypto into a GAAVEPool"
      },
      "depositETH(uint256)": {
        "notice": "Deposit ETH into GAAVE."
      },
      "getLatestPrice(address)": {
        "notice": "Calculate the value of deposit based on the token's address"
      },
      "withdraw(uint256,address,uint256)": {
        "notice": "Withdraw Crypto from GAAVE"
      },
      "withdrawETH(uint256,uint256)": {
        "notice": "Withdraw ETH from GAAVE"
      }
    },
    "version": 1
  },
  "storageLayout": {
    "storage": [
      {
        "astId": 2999,
        "contract": "contracts/GAAVECore.sol:GAAVECore",
        "label": "campaigns",
        "offset": 0,
        "slot": "0",
        "type": "t_mapping(t_uint256,t_contract(GAAVEPool)4619)"
      },
      {
        "astId": 3003,
        "contract": "contracts/GAAVECore.sol:GAAVECore",
        "label": "campaignOwner",
        "offset": 0,
        "slot": "1",
        "type": "t_mapping(t_address,t_uint256)"
      },
      {
        "astId": 3010,
        "contract": "contracts/GAAVECore.sol:GAAVECore",
        "label": "userInfo",
        "offset": 0,
        "slot": "2",
        "type": "t_mapping(t_address,t_mapping(t_address,t_struct(User)5020_storage))"
      },
      {
        "astId": 3014,
        "contract": "contracts/GAAVECore.sol:GAAVECore",
        "label": "tokenToPriceFeed",
        "offset": 0,
        "slot": "3",
        "type": "t_mapping(t_address,t_address)"
      },
      {
        "astId": 3019,
        "contract": "contracts/GAAVECore.sol:GAAVECore",
        "label": "tokenIds",
        "offset": 0,
        "slot": "4",
        "type": "t_mapping(t_address,t_array(t_uint256)dyn_storage)"
      },
      {
        "astId": 3022,
        "contract": "contracts/GAAVECore.sol:GAAVECore",
        "label": "WETH_GATEWAY",
        "offset": 0,
        "slot": "5",
        "type": "t_contract(IWETHGateway)6009"
      },
      {
        "astId": 3025,
        "contract": "contracts/GAAVECore.sol:GAAVECore",
        "label": "AAVE_POOL",
        "offset": 0,
        "slot": "6",
        "type": "t_contract(IPool)5757"
      },
      {
        "astId": 3027,
        "contract": "contracts/GAAVECore.sol:GAAVECore",
        "label": "WETH",
        "offset": 0,
        "slot": "7",
        "type": "t_address"
      },
      {
        "astId": 3030,
        "contract": "contracts/GAAVECore.sol:GAAVECore",
        "label": "AAVE_ETH_POOL",
        "offset": 0,
        "slot": "8",
        "type": "t_address"
      },
      {
        "astId": 3032,
        "contract": "contracts/GAAVECore.sol:GAAVECore",
        "label": "poolImplementationLib",
        "offset": 0,
        "slot": "9",
        "type": "t_address"
      },
      {
        "astId": 3035,
        "contract": "contracts/GAAVECore.sol:GAAVECore",
        "label": "GAAVEBadge",
        "offset": 0,
        "slot": "10",
        "type": "t_contract(IGAAVEBadge)4996"
      },
      {
        "astId": 3039,
        "contract": "contracts/GAAVECore.sol:GAAVECore",
        "label": "tokenAddresses",
        "offset": 0,
        "slot": "11",
        "type": "t_array(t_contract(IERC20)1825)dyn_storage"
      },
      {
        "astId": 3043,
        "contract": "contracts/GAAVECore.sol:GAAVECore",
        "label": "aTokenAddresses",
        "offset": 0,
        "slot": "12",
        "type": "t_array(t_contract(IERC20)1825)dyn_storage"
      },
      {
        "astId": 3046,
        "contract": "contracts/GAAVECore.sol:GAAVECore",
        "label": "campaignId",
        "offset": 0,
        "slot": "13",
        "type": "t_uint256"
      },
      {
        "astId": 3049,
        "contract": "contracts/GAAVECore.sol:GAAVECore",
        "label": "badgeIdCounter",
        "offset": 0,
        "slot": "14",
        "type": "t_uint256"
      }
    ],
    "types": {
      "t_address": {
        "encoding": "inplace",
        "label": "address",
        "numberOfBytes": "20"
      },
      "t_array(t_contract(IERC20)1825)dyn_storage": {
        "base": "t_contract(IERC20)1825",
        "encoding": "dynamic_array",
        "label": "contract IERC20[]",
        "numberOfBytes": "32"
      },
      "t_array(t_uint256)dyn_storage": {
        "base": "t_uint256",
        "encoding": "dynamic_array",
        "label": "uint256[]",
        "numberOfBytes": "32"
      },
      "t_contract(GAAVEPool)4619": {
        "encoding": "inplace",
        "label": "contract GAAVEPool",
        "numberOfBytes": "20"
      },
      "t_contract(IERC20)1825": {
        "encoding": "inplace",
        "label": "contract IERC20",
        "numberOfBytes": "20"
      },
      "t_contract(IGAAVEBadge)4996": {
        "encoding": "inplace",
        "label": "contract IGAAVEBadge",
        "numberOfBytes": "20"
      },
      "t_contract(IPool)5757": {
        "encoding": "inplace",
        "label": "contract IPool",
        "numberOfBytes": "20"
      },
      "t_contract(IWETHGateway)6009": {
        "encoding": "inplace",
        "label": "contract IWETHGateway",
        "numberOfBytes": "20"
      },
      "t_mapping(t_address,t_address)": {
        "encoding": "mapping",
        "key": "t_address",
        "label": "mapping(address => address)",
        "numberOfBytes": "32",
        "value": "t_address"
      },
      "t_mapping(t_address,t_array(t_uint256)dyn_storage)": {
        "encoding": "mapping",
        "key": "t_address",
        "label": "mapping(address => uint256[])",
        "numberOfBytes": "32",
        "value": "t_array(t_uint256)dyn_storage"
      },
      "t_mapping(t_address,t_mapping(t_address,t_struct(User)5020_storage))": {
        "encoding": "mapping",
        "key": "t_address",
        "label": "mapping(address => mapping(address => struct IGAAVECore.User))",
        "numberOfBytes": "32",
        "value": "t_mapping(t_address,t_struct(User)5020_storage)"
      },
      "t_mapping(t_address,t_struct(User)5020_storage)": {
        "encoding": "mapping",
        "key": "t_address",
        "label": "mapping(address => struct IGAAVECore.User)",
        "numberOfBytes": "32",
        "value": "t_struct(User)5020_storage"
      },
      "t_mapping(t_address,t_uint256)": {
        "encoding": "mapping",
        "key": "t_address",
        "label": "mapping(address => uint256)",
        "numberOfBytes": "32",
        "value": "t_uint256"
      },
      "t_mapping(t_uint256,t_contract(GAAVEPool)4619)": {
        "encoding": "mapping",
        "key": "t_uint256",
        "label": "mapping(uint256 => contract GAAVEPool)",
        "numberOfBytes": "32",
        "value": "t_contract(GAAVEPool)4619"
      },
      "t_struct(User)5020_storage": {
        "encoding": "inplace",
        "label": "struct IGAAVECore.User",
        "members": [
          {
            "astId": 5009,
            "contract": "contracts/GAAVECore.sol:GAAVECore",
            "label": "tokenAmount",
            "offset": 0,
            "slot": "0",
            "type": "t_mapping(t_address,t_uint256)"
          },
          {
            "astId": 5013,
            "contract": "contracts/GAAVECore.sol:GAAVECore",
            "label": "lastPrice",
            "offset": 0,
            "slot": "1",
            "type": "t_mapping(t_address,t_uint256)"
          },
          {
            "astId": 5015,
            "contract": "contracts/GAAVECore.sol:GAAVECore",
            "label": "ethAmount",
            "offset": 0,
            "slot": "2",
            "type": "t_uint256"
          },
          {
            "astId": 5017,
            "contract": "contracts/GAAVECore.sol:GAAVECore",
            "label": "timeEntered",
            "offset": 0,
            "slot": "3",
            "type": "t_uint256"
          },
          {
            "astId": 5019,
            "contract": "contracts/GAAVECore.sol:GAAVECore",
            "label": "powerAccumulated",
            "offset": 0,
            "slot": "4",
            "type": "t_uint256"
          }
        ],
        "numberOfBytes": "160"
      },
      "t_uint256": {
        "encoding": "inplace",
        "label": "uint256",
        "numberOfBytes": "32"
      }
    }
  }
}